:020000040800F2
:100000000020001035AF0208919F02085533000808
:100010008F9F02088D9F02088B9F0208000000003E
:10002000000000000000000000000000899F02089E
:10003000879F020800000000859F020855230108E1
:100040009DAF02089DAF02089DAF02089DAF020858
:100050009DAF02089DAF02089DAF02089DAF020848
:100060009DAF02089DAF02089DAF0208957301087D
:1000700085730108757301086573010855730108DC
:10008000417301082D7301089DAF02089DAF02085E
:1000900085A002089DAF02089DAF02089DAF02082F
:1000A000496200087D1301089DAF02083914010858
:1000B000C11201089DAF0208051201089DAF020898
:1000C0009DAF02089DAF02089DAF02089DAF0208D8
:1000D0009DAF020811240108952301089DAF020875
:1000E0009DAF02089DAF0208759F02089DAF0208F0
:1000F000156300089DAF02083D1101089DAF02087D
:100100000000000000000000000000009DAF020899
:100110009DAF02089DAF02083DD0000829D000081D
:100120001973010805730108F1720108DD720108F5
:10013000C97201089DAF0208000000000000000025
:100140009DAF02089DAF02089DAF020800000000AD
:10015000000000000000000000000000000000009F
:1001600000000000000000009DAF02089DAF0208E3
:100170009DAF020800000000000000000000000029
:08018000000000009DAF020821
:1001880070470C4B1B78DB0700D570470A4A136889
:10019800002BFAD04FF47A7101FB03F39842F4D3A1
:1001A800064B1B781BB9064B99681B690B6000232B
:1001B8001360704758320020A012002094120020CB
:1001C800A0110020704770B50B4C23689BB15A688A
:1001D800821A002A0FDB0546002603E05A68AA1A8D
:1001E800002A08DB99681E731A6821601846904730
:1001F8002368002BF2D170BD580D002010B50E22D7
:100208000446002106302BF0EAF81423A3700523D6
:10021800E3706371E3726373012323805223002226
:100228000421A37464232171A271A2722173A273A1
:10023800238210BD024B1A79597929F02DBC00BFD1
:10024800580D002008B51EF0B9F9084B9B7943B149
:10025800012B0AD10649074B0748084A0860DA60AB
:1002680002E0044B054ADA60FEE708BD580D00209D
:10027800FC9F002000ED00E0EFBEADDE0400FA05B3
:100288002DE9F04F2DED028BA0F10A0385B00C4645
:10029800E72B00F24787DFE813F004054507450719
:1002A80045074507450745074507450745074507E6
:1002B80045074507450745074507450745074507D6
:1002C80045074507450745074507E5044507450729
:1002D8004507D604450745074507C9044507660489
:1002E80045074507450716014507D7034507A406EF
:1002F80045078F064507450745072901C3024507F6
:10030800B002450745073D07450745074507450727
:1003180045075B044507450745074507800145072D
:10032800610145074A012F0145074507450745076C
:10033800450745074507E60145079F01450743026D
:1003480045078405450772054507450745074507DD
:1003580017056E036703EA06D70645074507DF0357
:10036800840645072E06F800450745074507450753
:10037800E800450745070504450745074507F6030F
:10038800F002CA02450745074507450758034507D0
:100398004507360345074507450745074507450708
:1003A80045074507450745074507450745074507E5
:1003B8004507170545074507450745074507450705
:1003C80045074507450745074507450745074507C5
:1003D80045074507450745074507450745074507B5
:1003E80045074507450745074507450745074507A5
:1003F80045074507450745074507450729034507B5
:100408004507450745074507450745074507450784
:100418004507450745074507450745074507450774
:100428004507450745074507450745074507450764
:100438004507450745074507450745074507450754
:100448004507450745074507450745074507450744
:100458004507450745074507450745074507450734
:1004680045070703450750042604A049522322687C
:10047800501C2060137011F8013F002BF7D10120A8
:1004880005B0BDEC028BBDE8F08F994800220168E9
:10049800256802EB42035B0019446E1C097A26604A
:1004A80029700168256819446E1C497A26602970EC
:1004B800016825680B4401329B7A691C052A216072
:1004C8002B70E4D1DBE720250021204612F046FFFF
:1004D800013DF9D12368874A591C21601D702368A2
:1004E800D278591C216001201A70C9E708460021FA
:1004F80012F034FF0120C3E70A687F4B7F490125CA
:10050800501C206015702268987856192660107063
:1005180022685019206015702268097850192060E7
:1005280011702046198812F031FF2846A8E70B6899
:1005380000255A1C0A601D700B685A1C0A601D7041
:100548000B685A1C0A6029461D70204612F006FFE7
:100558002046294612F002FF012091E7684F3B78B8
:10056800002B8CD0DFF8B48100254646236818F8A4
:100578001520591C21601A70717801EB810101EB7B
:10058800810101F2EE21204612F000FF3B7801358F
:10059800AB4206F10206E9DC71E70B68594D591CBC
:1005A8002A7921601A7023686A79591C21601A70A7
:1005B8002988204612F0EAFE2368AA79591C21608E
:1005C8001A706988204612F0E1FE2368EA79591CFE
:1005D800216001201A7053E70B684B4E4B4A717823
:1005E8004B4D581C2060197023681278591C2160E3
:1005F8001A7023682A79591C21601A702368AA780E
:10060800591C21601A702988204612F0BFFE298AD9
:10061800204612F0BBFE23680022591C21601A7084
:100628002368EA78591C21601A7023683279591CAA
:1006380021601A702368F278591C21601A702368A7
:100648003278591C21601A70718B204612F09EFE78
:10065800718A204612F09AFE2368327D591C216067
:1006680001201A700CE72B4B1E6800238DF8083008
:10067800002E00F0FD8502A9304625F09DF833686C
:1006880030465B68984733689B680746002B00F044
:10069800148630469847064623681F4D5A1C226028
:1006A8001F7023682A78591C21601A7023686A7899
:1006B800591C21601A702368AA78591C21601A7085
:1006C80023689DF80820591C21601A70A9882046C3
:1006D80012F05CFE23685A1C22601E7023682A7A76
:1006E800591C216001201A70CAE600BF8CB40208A8
:1006F800502F0020B42E0020B0310020521F0020BF
:10070800F01D00201C2A002078480020901F00209F
:1007180030510020C42E00204E320020482C0020EA
:10072800B64F0B68BA79B64D591C21601A702B6800
:100738002046598812F02AFE2B682046198812F0A4
:1007480025FE7989204612F021FEB989204612F04B
:100758001DFE2B682046998812F018FE2B6820464B
:10076800D98812F013FEF989204612F00FFE398A53
:10077800204612F00BFE23682A68591C92F826209E
:1007880021601A702368BA78591C21601A7023688E
:1007980000265A1C22601E70F988204612F0F6FDC9
:1007A8003989204612F0F2FD23687A7D591C2160B0
:1007B8001A702368BA7D591C21601A702B6820466C
:1007C800B3F84C1012F0E2FD23682A68591C92F81D
:1007D8006020216020461A70314612F0D7FD31465C
:1007E800204612F0D3FD3146204612F0CFFD2046B8
:1007F800314612F0CBFD012042E60B68814A581CB5
:1008080051782060197023687F4A581C00212060A5
:10081800197023681279591C216001201A702FE67B
:100828000B6801229918216010461A7028E623687F
:1008380076497748CA795D1C25601A7023685D1C63
:1008480025601A7023688078724A5D1C25601870CC
:1008580023681278581C20601A7023680022581CDC
:1008680020601A702368C979581C206019702368A1
:10087800591C216001201A7002E60A68664B674914
:100888001878551C2560107022685878551C25600A
:10089800107022689B78501C206013702046C9880D
:1008A80012F074FD0120EBE50B685D4D591C142214
:1008B800216005F178061A7028780FF0D5F80746F8
:1008C80068790FF0D1F823683A7A591C21601A70B8
:1008D80023682A79591C21601A702368027A063520
:1008E800591CB54221601A70E6D1C8E50B684D4A1B
:1008F800591C127821601A702368FF22591C216044
:1009080001201A70BCE5484B186810F000603FF4ED
:10091800B7AD0B68454E591C327821601A70337890
:10092800002B3FF4ACAD0025E8B223F079FB236837
:100938004278591C21601A708189204612F026FDE0
:1009480033780135AB42EFDC99E5394D0846698AC1
:1009580012F01CFDA98A204612F018FD2046E98AEB
:1009680012F014FD01208BE508461022314912F0DF
:10097800DDFC012084E5304B1B8BB3F5006F00F2E2
:100988007084B3F5806F00F28484B3F5007FB7EE0E
:10099800008AF6EE007A28BFB0EE678A274D05F187
:1009A8000C06B5EC010A20EE080A2AF099FC81B27F
:1009B800204612F0EBFCAE42F3D1214D214F05F158
:1009C8000C06B5EC010AD7ED077A80EE270A2AF063
:1009D80087FC81B2204612F0D9FCB542F1D1002142
:1009E800204612F0D3FC0021204612F0CFFC20460E
:1009F800002112F0CBFC012042E500BF784800201E
:100A0800502F0020B01F002094290020BC1F002078
:100A1800F42C0020BA1F0020981F002078290020FD
:100A2800682300200A1C0020404F0020B02D002021
:100A38003051002070210020B81E0020E41E002044
:100A4800A4480020B04800200B68A64A591CD27B55
:100A5800216001201A7013E5A34D0846298812F079
:100A680095FC6988204612F091FCB5F904309F4A3C
:100A7800D91782FB0323C1EBA301204689B212F0E8
:100A880085FC0120FCE49A4D0846298812F07EFC7A
:100A98006988204612F07AFC2046A98812F076FC74
:100AA8000120EDE4934D05F16006A988204612F077
:100AB8006DFCE988204612F069FC2989204612F06D
:100AC80065FC2368AA7A591C21601A702368EA7A9F
:100AD800591C21601A7055F80C1B204612F03EFC78
:100AE800B542E2D1CBE4844B03F170052268197852
:100AF800501C2060117022685978501C20601170B9
:100B080022689978501C206011702268D978501C8E
:100B18002060117022681979501C206011702268B9
:100B28005979501C20601170226899790733501C3C
:100B3800AB4220601170D9D1A1E4704D0846A98953
:100B480012F024FC2046698912F020FC012097E469
:100B58000B6800255A1C0A60204629461D7012F0B1
:100B6800FDFB2946F1E45F4D0B682A7A591C216088
:100B78001A70E98A204612F009FC698A204612F0A8
:100B880005FCA98A204612F001FC23686A7B591CDF
:100B980021601A70E98B204612F0F8FB298C204658
:100BA80012F0F4FB23682A7E591C21601A7023680E
:100BB800AA7E591C21601A702B7F03EB830359000E
:100BC80001F57A71204612F0E1FB236800265A1CD1
:100BD800226031461E70204612F0C0FB23685A1C62
:100BE80022601E702368EA7E591C21601A702368EF
:100BF8006A7E591C21601A7023685A1C22601E7074
:100C080023685A1C22601E7023685A1C22601E70BA
:100C180023685A1C22601E7023685A1C22601E70AA
:100C280023685A1C226001201E7029E40B68344A8C
:100C3800581C11782060197023685278591C21605B
:100C480001201A701CE42F4D0846298812F09EFBDB
:100C5800A988204612F09AFB2046298912F096FBB3
:100C680001200DE4284D05F1780628780EF0FCFEE9
:100C78002368027A591C21601A7023686A78591C03
:100C880021601A702368AA78591C21601A70236899
:100C9800EA780635591CAE4221601A70E5D1FFF793
:100CA800EEBB1A4D284629F091FE00283FF4E7AB29
:100CB8002B460544226813F8011B501C9D422060F6
:100CC8001170F7D1FFF7DBBB002306461D46DFF89E
:100CD8004080DFF840B0DFF840A0CDE90033994606
:100CE80020E000BFD0350020B01E00206766666691
:100CF80078290020942A002070250020A01F0020B9
:100D08006C2A00207019002068230020641F00202E
:100D180044110020F61E0020583200200135282DED
:100D280000F0118229464046EFB215F0A7FC0028D2
:100D3800F4D0002240F20123ADF80820ADF80A30C3
:100D480040F6060240F60A33ADF80C20ADF80E3036
:100D5800002D00F0EA81072F4FF0010300F2EF8128
:100D680002AA515DBBF800208B40134214BF01203A
:100D78000020002840F0DE8109F10109CEE70B6868
:100D8800AB4A591C927821601A7022680123D11845
:100D9800216013702268D118216018461370FFF77C
:100DA8006FBB0021204612F0F1FA0021204612F014
:100DB800EDFA0021204612F0E9FA23689D4E00253D
:100DC8005A1C22601D7023683268591C92F846200C
:100DD80021601A7023683268591C92F847202160F4
:100DE8001A7023685A1C22601D7023685A1C2260DE
:100DF8001D7023685A1C22601D7023685A1C2260CB
:100E08001D7033682046198F12F0C0FA33682046E7
:100E1800D98E12F0BBFA23683268591C92F82D203B
:100E280021601A7023685A1C22601D70336820469E
:100E3800598E12F0ABFA33682046998E12F0A6FA52
:100E48002946204612F0A2FA23683268591C92F803
:100E5800512021601A7023685A1C22601D70236873
:100E68005A1C22601D7023685A1C22601D7023685A
:100E78005A1C22601D7023685A1C22601D7023684A
:100E88003268591C92F8562021601A70336820463F
:100E9800998912F07BFA33682046598A12F076FA5B
:100EA80033682046198B12F071FA23683268591C8E
:100EB80092F8302021601A7023685A1C22601D7035
:100EC80023685A1C22601D7023685A1C22601D70FA
:100ED80023685A1C22601D7023685A1C22601D70EA
:100EE80023685A1C22601D7023685A1C2260012046
:100EF8001D70FFF7C5BA504D0B682A68591CD27887
:100F080021601A702B6822689979531C236000238A
:100F180011702A6821681A440133527A481C032B3D
:100F280020600A70F5D123682A68591C127B216059
:100F38001A7023682A68591C127821601A7023686D
:100F48002A68591C527821601A702B682046D98962
:100F580012F01CFA23682A68591C127A21601A7048
:100F680023682A68591C527921601A7023682A68F4
:100F7800591C127921601A7023682A68591CD27981
:100F880021601A7023682A68591C127C21601A7023
:100F98002A682368527C591C216001201A70FFF7C7
:100FA8006FBA0021204612F0D9F92046002112F02C
:100FB800EDF90120FFF764BA204D214E05F1100725
:100FC80095F9023096F906209A4200F0168196F9B2
:100FD8000E209A4200F011810835AF42F0D1FFF798
:100FE8004EBA184B03F5967522685979501C206043
:100FF800117022681978501C206011702268597885
:10100800501C2060117022689978501C2060117063
:101018002268D978501C20601170226819790A3327
:10102800501C9D4220601170DED1FFF728BA00BF26
:10103800A01F0020502F0020FC1E0020105F002061
:10104800005F0020C41200209D4F3B78002B3FF426
:1010580016AA9C4E002536F9021B204689B212F0CA
:1010680095F93B780135AB42F5DCFFF708BADFF8B4
:1010780084A2DFF884B2944E944F9FED958ADFF8EE
:101088007C82DFED948ADFF878920AF1C0050EE0E1
:10109800FCEEE77A17EE903A99B220460AF1180A60
:1010A80012F074F955450BF1040B3FF4E8A99AF8CE
:1010B80011100029F1D03378DBED007A012BE7D14C
:1010C8003B68DB0440F1B680F5EE407AF1EE10FAA9
:1010D80000F0CB80F4EEC87AF1EE10FA00F1C5808A
:1010E800BDEEE77AF4EEE87AF1EE10FA17EE103A70
:1010F80000F2D380A3F130026FF4F97303FB02F31B
:1011080089FB03121A44D917C1EB622101F2DB51A2
:1011180089B2C2E7084608226F4912F007F9012090
:10112800FFF7AEB90020FFF7ABB99AF8000000F05E
:1011380001001EE64946684615F090FA1CE6384656
:101148001FF048F915E6654B654DB3F89C1020462D
:1011580012F01CF9634B2046198912F017F9624BFB
:1011680019684B0103F02002C1F340031343C1F394
:10117800800243EA4203C1F3C00243EA8203C1F397
:10118800401243EAC20301F010011943204612F04D
:10119800FDF869460422204612F0C8F82368297829
:1011A800524A581C2060197011886429A8BF64210C
:1011B800204612F0EBF8962E60D00021204612F05F
:1011C800E5F82168B9F1190348BFA9F11203A3F39F
:1011D800C4034A1C226020461A460B7001A912F06B
:1011E800A5F82368424A581C15212060197020462A
:1011F800116812F0B3F8FFF742B92268511C216058
:1012080013702988204612F0C1F82368EA78591C1F
:1012180021601A7023682A79591C21601A70236882
:10122800AA79591C21601A7023686A79591C2160AF
:101238001A70D1E6F4EEC87AF1EE10FA1BDBFDEE77
:10124800E77A40F2E73217EE903A303B02FB03F3BD
:1012580088FB0321DB17C3EB612101F2E93189B275
:101268001BE7B4EE008AFFF799BB40F2DC5114E7A4
:10127800FF27FFF711BA4FF47A710EE723680322AC
:10128800591C21601A7023686A78591C21601A70E9
:1012980097E7B5EE008AFFF781BBA3F5836240F2BA
:1012A800F31303FB02F389FB03121A44D917C1EBAA
:1012B800622101F2DD5189B2EFE61846FFF7EBB97A
:1012C800F01D0020403300204A510020404F0020EC
:1012D8000000404200E08244D03500203000002069
:1012E800342F0020580D0020CC350020EC100020B1
:1012F8001C330020904F002050210020DB9B91419F
:1013080021053483AD4B1B7803B170472DE9F04FAD
:10131800AB4D2DED028B2B6859058FB004D40FB05F
:10132800BDEC028BBDE8F08FA64B02901B780BB981
:1013380019F088FEA44B1B78012B44D010F052FD05
:10134800A24B93F80080B8F1010F81465BD0A04B07
:101358001B78002B40F064819E4D2A78002ADED14C
:101368009D4C94F82930012B40F2DF8094F82A0034
:101378009A4984F82A20C21801EB8202D269BAB1CC
:10138800DFF89882CDF81C800EAEA8F1120946F855
:10139800209D48F2A50C15230299A4F82CC03046CC
:1013A80084F82E309047002840F0658394F829305F
:1013B8008B4A0133A2FB0312520802EB42029B1A2A
:1013C80084F82930ABE7874B1B68002BB6D0824CDA
:1013D8000299E368844ACB1A9342AFDD834B267C9B
:1013E8001B68E1600136F6B29A07267400F1AD84F5
:1013F800730700F08884282E00F0D6847C4B5E208A
:101408001B6898479AE77B4C206800289FD04FF0CC
:10141800000A8DF810A011F083F818B3764D6E4EBF
:10142800206811F075F883B27E2B00F078832A7853
:10143800D4F800C0002A40F00782717D002900F02E
:101448009E801B2B727540F00682604611F068F88A
:10145800002800F04C84206885F8008011F060F8BE
:101468000028DDD1654C23780BB1013B2370644D16
:101478009FED648AA5EB09059DF81030002B3FF419
:1014880066AF2678002E7FF462AF10F0ABFCC54241
:1014980040F10D845C4B1A78002A40F00C845B4BB9
:1014A8005B4E597918791F6888421CBF4A00481C4E
:1014B800BA5A317814BFC0B201205871B2F5826FA0
:1014C80001F10103337000F0078233D9B2F5E26FFE
:1014D80000F0CC8140F20581B2F5046F00F09082F3
:1014E800B2F5116F00F08182B2F5E46FC4D1494BB7
:1014F80093ED0D0AD3ED007A20EE270A002620EEA0
:10150800080A29F0EDFE10228DF81820424BCDF87C
:101518001B0020228DF8192007221B688DF81A203D
:1015280006A898478DF81060A6E72C4A02EB8302BC
:10153800D26924E7B2F5007F00F0488200F28E807D
:10154800B2F5807F00F07F82B2F5887F94D1324A6D
:1015580000261023012112688DF818308DF81930F3
:101568008DF81B608DF81C608DF81D608DF81E606D
:101578008DF81A1006A890478DF810607CE77D2B2F
:1015880000F00884327E1AB180F02003DBB2317695
:10159800F28A317D1A44062992B200F2BD8006EB28
:1015A800010E60460131F2828EF81C30317510F060
:1015B800B7FF00287FF434AF54E700BF1933002089
:1015C800404F0020BB1F0020FC35002009360020BA
:1015D80014360020E11C0020580D00208CB40208AD
:1015E800ABAAAAAAC032002047E80100CC350020E7
:1015F800782E00204435002000000020AC1E00207A
:1016080018FCFFFF0000C842AD1E0020D4070020D0
:10161800AE1E0020B81E0020BC320020990D00200C
:10162800BE4C227832B1BE4BBE49186810F04CFF50
:1016380000232370DFF8408398F80040002C00F066
:101648009080DFF838B3DBF86060002E40F07682D7
:10165800B54B029A88F800605A627DE6B2F5047FBD
:1016680000F02181B2F5806F7FF406AFAF490B78A7
:101678000133DAB2042A00F0298342F210730A70A7
:1016880003FB02F3AA4A1268002A40F0858201335C
:10169800A84A1278D607A84A128848BF0433D00748
:1016A80048BF0A33910748BF1433D70548BF2833CA
:1016B800560748BF6433500648BF03F57A639F480E
:1016C800CDF81B3010210026042203688DF818106D
:1016D8008DF819608DF81A2006A898478DF81060C3
:1016E800CAE6B2F5C06F00F0A481B2F5E06F7FF4EE
:1016F800C3AE934B93ED0B0AD3ED007A20EE270A85
:10170800002620EE080A29F0EBFD8C4BCDF81B00D3
:10171800102107221B68D9E7D3B203EB1222FF2A54
:1017280085F80080F28240F08F80864C604610F089
:10173800F7FE2378002B7FF498AE337F303B012BE4
:101748003FF695AE7F4A8048062122F07BFD7F4A0E
:1017580023781070002B3FF48AAE00238DF81030E8
:1017680085E67B4D2B78002B40F02A826E4C794D14
:10177800626A2978784B93FBF1F31344029A9A42F0
:10178800FFF4EAAD114694F82830744A616212F801
:10179800038018F0010F44D0DFF8E4919FED708AC0
:1017A800B9F9023007EE903AF8EEE77A6D4B0793F5
:1017B80067EE887A0EAEFDEEE77AA3F13D0246F8B1
:1017C800202D17EE902A91B240F6C80223F8402C3B
:1017D8001E2203F83E2C304611F0B2FDB9F9003054
:1017E80007EE903AF8EEE77A304667EE887AFDEE33
:1017F800E77A17EE903A99B211F0A2FDB9F90430E0
:1018080007EE903AF8EEE77A304667EE887AFDEE12
:10181800E77A17EE903A99B211F092FD304622F02D
:1018280077FE18F0020F40F03D8318F0040F40F0E7
:10183800E18294F828302978013393FBF1F201FB17
:10184800123384F8283087E5604610F069FE0028D6
:101858007FF4E6AD06E60D2B7FF4FDAD6046F2821F
:1018680010F05EFE00287FF4DBADFBE5344B93ED12
:101878000C0AD3ED007A20EE270A002620EE080A8B
:1018880029F02EFD10232D4A8DF818308DF81930C7
:101898000723CDF81B0012688DF81A3006A8904768
:1018A8008DF81060E8E5304A304BD27A1B88002A60
:1018B80040F01682214ACDF81B300221102312680D
:1018C8008DF818308DF819308DF81A1006A80026F2
:1018D80090478DF81060CFE5234B9B7A002B3FF49F
:1018E800CBAD234803781A06032B00F22383DFE8E5
:1018F80003F0625749021F4B19684B7A8E7AC97AEE
:101908001A4402EB0622002302EB014203700B4843
:10191800CDF81B20102304210268D1E7C835002028
:101928001036002088350020580D0020F41E0020B5
:101938001C33002058320020F61E0020BC32002044
:10194800B81E0020AC1E0020750D0020AD1E002022
:10195800153600201C360020A0860100183600200D
:1019680058A08B4188350020D8320020FC32002056
:10197800F81E0020FC1E002016360020203600200D
:10198800B01E002085490E68B17D96F810C0B67A61
:10199800090401EB0C213144013303700A44B6E712
:1019A8007E490E68717D96F80FC0767A090401EBBE
:1019B8000C213144F0E779490E68317D96F80EC064
:1019C800367A090401EB0C213144E5E7744B754A7A
:1019D8001B68754882FB0312DB17C3EBA2031021B7
:1019E8000026CDF81B3002226FE6704B1B78002BC7
:1019F80040F07181CDF81B306B4A102309215EE756
:101A08006B4B694AB3F90430126803EB83035B003C
:101A18001020CDF81B30402108238DF818008DF8D0
:101A280019108DF81A3006A8002690478DF8106016
:101A380022E55B4A5C4B9268CDF81B2010210026FA
:101A480006221B6842E6584B0026102101221B681B
:101A58008DF818108DF819608DF81B608DF81C60D2
:101A68008DF81D608DF81E608DF81A2006A898471D
:101A78008DF8106000E5069B4B4540F25E82A8F1A8
:101A8800130003F1FF3C002141F2210710F8012F58
:101A980081EA022212B293B2002AACBF5B0087EA45
:101AA80043039BB21A0454BF5B0087EA43039BB20B
:101AB800190454BF5B0087EA43039BB21A0454BF5E
:101AC8005B0087EA43039BB2190454BF5B0087EAB3
:101AD80043039BB21A0454BF5B0087EA43039BB2DB
:101AE800190454BF5B0087EA43039BB21A0454BF2E
:101AF8005B0087EA4303844599B2C7D1304611F0A9
:101B080045FC2C49069E2C48761A152EA8BF15268A
:101B1800324629F040FC94F829302E7048E42068B9
:101B28008DF810A086F814A086F8158085F800A016
:101B380010F0F6FC00287FF473AC93E40024DFF87F
:101B48007CA026464FF050090BE01C44EFF31183AC
:101B580089F31288DBF86020944216DADBB283F34B
:101B680011881BF80450601C29465844002222F0B2
:101B780069FB6B1C0028E8D051463A2022F0C4FAD1
:101B880001350643F6B22C44E0E70022DBB2CBF87D
:101B9800602083F311885BE5023379E5502F00203C
:101BA800C432002067666666BC320020023300201B
:101BB800B01E0020840D0020CC1C00204D450208DA
:101BC800A24EA34B0093A6F13F014FF0C808CDE900
:101BD800041606F8408C9F4B9F4AA04906A814F0AB
:101BE80017FD049E731C04933470049B2922591C0E
:101BF80004911A70049BEA22591C04911A70049BE0
:101C08005A1C049206A883F8008028F0DFFE00F131
:101C1800010806A94246049829F0BDFB049A02EB84
:101C280008030133049302F80840049B5A1C0492E9
:101C38001C70049B5A1C04921C70049B5A1C04922E
:101C48001C70049B5A1C04921C70049B5A1C04921E
:101C58001C70049B5A1C04921C70049B5A1C04920E
:101C68001C70049B5A1C04921C70049B5A1C0492FE
:101C78001C70049B5A1C04921C70049B5A1C0492EE
:101C88001C70049B5A1C04921C70049B0122991816
:101C98000EA804911A7050F8283D9B1B337022F04F
:101CA80037FC6F4B029A2C705A62FFF755BB8DF8C0
:101CB8001060FFF74CBB6B490393062022F024FA0F
:101CC800039B8DF810601870FFF741BB01230B7060
:101CD80042F21073D6E4644A128892FBF3F389E661
:101CE800624A1278002A40F022811346E2E5206811
:101CF8008DF8108085F8008010F012FC00287FF421
:101D08008FABFFF7AFBB5A4B5A49B3F9003081FB91
:101D18000321DB17C3EBA10109B2022022F0E0FB8B
:101D2800554B1B78DF0700F13381544D544BA9897B
:101D3800A3FB01318908032022F0D2FB6B7A002B28
:101D480040F0FD80267CFFF756BB702022F01AFC7D
:101D580000283FF44DABDFF848812426A8F12C0970
:101D6800F8EC017A99ED007A67EE877A3046FDEE55
:101D7800E77A013617EE903AC3EB431103EB810380
:101D8800D90009B2F6B222F0ABFB272EE8D1267CA7
:101D9800FFF72EBB604686F8188010F0C1FB0028BC
:101DA8007FF43EABFFF75EBB364A374B1568374EBC
:101DB800A3FB05239B0BA6FB03214909C1EB0111DA
:101DC800A3EB8103190209B200231720237422F020
:101DD80087FB2F4BA3FB05239B09A6FB0312520984
:101DE800C2EB0212A3EB820319B2182022F078FB8F
:101DF800FFF704BB204A154B92F800900793A3F114
:101E08004006C8212122A3F13D0A19F0010923F84F
:101E1800401CB270CDF818A000F0DF801D4A12886F
:101E2800510540F1E9801C4A106843F83D0CF31D48
:101E38000693581C069000210EA81970174A50F8EE
:101E4800203D9B1A737022F063FBF2E48835002072
:101E58003B2F002078E5020880E502088CE502089F
:101E6800580D002061230208FC32002002330020B4
:101E7800B41F00206766666658320020002F0020D5
:101E8800CDCCCCCC1843002073B2E745898888882C
:101E9800D34D6210F61E002098E50208493500204F
:101EA800E41E0020B14BB24AB249D27A079340F6F9
:101EB800C82023F8400C082003F83E0C3D3B06934D
:101EC8000B88002A7BD1AC490533A1FB033106AE50
:101ED800C908304611F034FADFF8A492A749D9F8B6
:101EE800003081FB0321DB17C3EBA10189B2304627
:101EF80011F026FA0DF000FAD9F80890069B4FEA7F
:101F08001942591C06911A70069B4FEA1922591C4E
:101F180006911A70069B5A1C069283F80090069B3D
:101F28005A1C06921870304622F0F2FA7DE493FBB0
:101F3800F2F3BFE401330370E9E40021DEE5012098
:101F480022F020FB002864D1AB7A002B3FF4FAAED4
:101F5800022022F017FB40B1894A0A23116891FB3D
:101F6800F3F1282009B222F0BBFA042022F00AFB80
:101F780000283FF4E7AEAB89002B40F0D580804BBA
:101F8800996881F3100109B2042022F0A9FAD9E670
:101F98001EF00CFC7B4B9FED7C7AD3ED037A67EE49
:101FA800877AFCEEE77A17EE903A99B220B92B6857
:101FB80013F0100F18BF002109B2744DBBE6744925
:101FC8006D4A097893FBF1F10531A2FB013106AEA8
:101FD800C908304611F0B4F97EE76E4A1268002A43
:101FE8005AD06D4A106843F83D0CF31D591C2A223B
:101FF8001A7006910B461CE7100540F19980674A54
:10200800118823F83D1C92788AF80220B31D0693A4
:102018000FE75F4EDFF85C813278002A5FD1134604
:10202800110189B241EA0321C3F30323194309B219
:102038000620628222F054FA4D48618A90F808C05E
:10204800B8F8003032780131BCF1010F03F1050313
:102058004FF00A06618293FBF6F399B22CD0C37A4B
:1020680001EB81018EB213B10AB196FBF2F64FF083
:1020780064093A20B6FBF9F80FFA88F122F030FA31
:1020880009FB186189B20A2305313B2091FBF3F162
:1020980009B222F025FA57E7414A1288500500F1A3
:1020A8009880170500F18C80D10510D53D4A10683D
:1020B80043F83D0CF31D99E7C07A18B112B193FBB0
:1020C800F2F399B209B2392022F00AFA3CE7D107B3
:1020D80015D5354A106843F83D0CF31D86E7618A2B
:1020E800B8F8003091FBF2F04FF0640C02FB1010CE
:1020F8000CFB0323510082B2B3FBF1F390E7910785
:1021080028D5DFF8B8B0584628F060FC5946804614
:102118000246264829F03FF90AEB08030693B9F16D
:10212800000F3FF463AF84E60DF0E6F801B22BE749
:10213800D70506D51B4A106843F83D0CF31D0693D6
:1021480077E6D007DBD5184A106843F83D0CF31D35
:1021580006936EE6164A174B92F800B0164ABBF182
:10216800000F14BF9B469346CDE700BF883500207B
:10217800D8320020FC320020CDCCCCCC6766666615
:10218800C432002030210020CDCC4C3E002F00204E
:10219800023300201C330020A0E50208A8E502084D
:1021A800F61E0020ACE50208B4E502084B35002015
:1021B8004E12002068E502086CE5020874E5020882
:1021C800074A1188927823F83D1C8AF80220B31D2B
:1021D8000CE7044A106843F83D0CF31D06E700BFFE
:1021E800A8E5020898E5020870B5244924480A7849
:1021F8004B78CD7B2349244EC2EB0214C2EB8402F8
:1022080003EB4304002D03EB8403204D204C01EB2A
:10221800430300EB420214BF2821202133602A60C7
:1022280021601EF00FFB302200211A481A4C29F0B9
:10223800D6F828681BF0F0FD1EF060FA174A184B14
:102248001079184A62646421C82211FB0021002217
:10225800C3E90112C3E90322C3E90522DA6183F85D
:10226800202083F8212019F0A1FA94F84A10B4F834
:102278004800BDE870401CF031BF00BF342F00207B
:10228800602F0020F8300020FC1E0020502F002076
:10229800B404002030140020580D00201C2A00200F
:1022A8005C320020A41F002010B50446204610F020
:1022B8002BF900B110BD0A200FF0A4FFF6E7064B7A
:1022C8001A68904203D09A68904204D108330022D9
:1022D800C2629A801A607047005F00202DE9F04FB3
:1022E800A54C9B4694F906308FB0834280468946B8
:1022F80001929DF864609DF8685000F0F38094F9AD
:102308000E30834200F0ED804FF0000A2FE12B469B
:10231800324618995FFA88F014F020FF82460028A8
:1023280000F02581019B0671C0E90B3B0122189B37
:1023380080F858204571C0E90777C0E909778360BC
:10234800406D026815F0040F22F0010202600CBF14
:1023580000224FF4805204922A032D0205F480656E
:1023680002F40052069516F00105059216BF0422E4
:102378000795079216F002060393089703D0079A69
:1023880042F00802079203A921F0B8FD9AF8042048
:102398009AF8057012F0020F0CBF00214FF40031BB
:1023A80007F00100D30748BF41F48031DAF8542020
:1023B800002800F083805068014351609168380715
:1023C8004CBF41F0080121F008019160116841F00B
:1023D80001011160002D36D0DAF83810002972D0CA
:1023E80003A821F0B1F9DAF8502003924FF4805392
:1023F80000228021CDE90C320792099208910A92B5
:10240800DAF80C10059220220B92DAF83800DAF884
:1024180014200492ADF8181021F0C4F903A9DAF8D1
:10242800380021F09FF9DAF83820DAF854001168FA
:1024380041F001011160816841F0400181605268FA
:1024480092B2CAF84820002E31D0DAF83C20002A8F
:1024580040D003A821F078F9DAF84C20039200253F
:102468004FF48052CDE90C2580220892DAF810202A
:10247800ADF81820DAF83C00079510220592099566
:102488000A950B9521F08EF903A9DAF83C0021F0A2
:1024980069F9DAF83C20116841F002011160DAF8B4
:1024A8005410556055608A6842F080028A60DAF8F4
:1024B80054100A6842F001020A6052E0506820EAAB
:1024C800010151607AE720211162116841F0200171
:1024D8001160B8E7DAF854100A6842F080020A601E
:1024E800E5E70834A788002F7FF40EAFB8F1000F96
:1024F800FFF60AAFB8F1010F7FF709AFB8F1140F73
:102508007FF402AF1B2010F0CDF910B123238371A3
:10251800C77124F0C9F818B1232383710023C3714C
:1025280021F050FA154B1649DFF870A000221A6006
:1025380002F1804202F50432D36943F40003D36107
:10254800104A114B136002221A72104A104B136082
:10255800104A1B681160984727F017FD0E4A4AF881
:102568004C2F8AF83480A4F80490C4F800A0504690
:102578000FB0BDE8F08F00BF005F0020D8004242D6
:10258800040000203C3A0020483A0020685F002000
:10259800240D0020645F0020B4B40208580D002008
:1025A80038B1038813EA010003D08B420CBF012025
:1025B800022070470A4A0B491388184210B50C4686
:1025C80009D1138918404FF0020307D0012002EB0C
:1025D800C000237010BD00200123F8E70B70F9E755
:1025E800105F0020B8110020024A13881843108099
:1025F800704700BFF61E0020024A13681843106097
:10260800704700BF1C3300202DE9F04FE04D2DED41
:10261800068B2B7891B0044643B1DFF8CCA3DAF8E7
:102628000C305046984780F001002870D94B1A7832
:10263800002A00F04882D849D848D94E0D7804F5C8
:10264800EC425F320260002032681870002D00F002
:10265800F581944201D9013D0D7020460AF00AFD2A
:10266800002800F03082CF4DCF4AD5F82431C5F884
:102678002441E41A47F230539C421668CB48CC49AF
:10268800B6F80EC0CB4FA8BF1C46B4F57A7FB0F998
:102698000630B8BF4FF47A740C8063454FF00104DC
:1026A8003C7080F22882C44A4FF07E511160C34AC0
:1026B800C349B0F900804E8A92F9044092F800E0CC
:1026C80092F801C0002CA8EB060214BF01274FF0B6
:1026D800FF37002AB8BF5242B2F5FA7FA8BF4FF4BD
:1026E800FA727245C6BFA2EB0E0207EE902ADFED22
:1026F800B57AB54CC8BFF8EEE77A4645B0F902801E
:10270800C4ED007AA8EB0602C4BFF1EE677AC4ED07
:10271800007A002AB8BF5242B2F5FA7FA8BF4FF438
:10272800FA729645BABFA2EB0E0207EE902ADFEDC9
:10273800A57AB0F90400B8BFF8EEE77AB045A0EB87
:102748000602C4ED017ABCBFF1EE677AC4ED017AE6
:10275800002AB8BF5242B2F5FA7FA8BF4FF4FA7206
:10276800944580F2E181A2EB0C0C07FB0CFC07EE10
:1027780090CAF8EEE77A954AC4ED027A8642106864
:10278800C4BFF1EE677AC4ED027A10F4805000F00D
:102798009F81B3F5FA6FA8BF4FF4FA63B3F57A7F58
:1027A800B8BF4FF47A73A3F57A71894B1A78002A67
:1027B80040F09781874FDFF834C287FB0123CA179F
:1027C800C2EB63135A1C6FF0630E3CF912203CF9FC
:1027D80013C00EFB0313A2EB0C0203FB02F387FBEF
:1027E8000327DB17C3EB671363441BB207EE903A6A
:1027F800B8EEE78A84ED038A002840F0B581764B6D
:102808001B885A0640F10F8140F603027349D4ED44
:10281800011A91ED018AD1ED033A91ED029AD1EDB9
:10282800005A94ED002A13406D4A08BFD4ED022ADD
:1028380092ED014A92ED026AD2ED006A92ED030A26
:1028480018BFDFED602A674A38EE635A74EE460A0D
:1028580076EE807A65EE200A75EEC94A35EE89AAC9
:1028680076EEC09A64EEA74AB0EE603AAAEE293A2C
:10287800B0EE645A38EE237A74EE067AAAEE295A34
:10288800A7EE273AA7EE675AB0EE601A97EE271A16
:1028980033EE243AF6EE008A75EE88AA28EEC33A9B
:1028A80035EE605A76EE840AB0EE417AAAEE691ADD
:1028B800AAEEA03A77EE647A76EE400A73EEC9AAD9
:1028C80025EE285AEAEE297AAAEEA05A71EE244A91
:1028D80036EEC44A63EE036A73EE893A64EEA84A98
:1028E80075EEC85A36EE006A67EEA87AB0EE667AD8
:1028F800E3EE844A95EE057AE5EE056AE5EE867A1A
:10290800B1EE648AF0EE665AF0EE476AB1EE674AB5
:10291800E8EE246A63EE270A67EEA43AE4EE275A43
:10292800B1EE450AB0EE606AB0EE631AA4EE277AFB
:1029380023EE244AE7EEA76AA5EE246AA0EE031A5E
:10294800E8EE245AB0EE448A31EEA19AE0EE240A69
:10295800A5EE278A66EEA16A72EE028AE5EE033AD0
:1029680061EE211A26EE096AA4EEA47AA0EE274A9F
:10297800A2EE256AE8EEA06AE2EE081A73EEA33A20
:1029880027EE227A34EE044AF0EE005A30E000BF17
:10299800081E0020101E00201C2300200C1E0020F2
:1029A80018230020580D0020FC1E00204033002072
:1029B800F2110020F0110020C8270020981F0020E5
:1029C800D03500200000000030210020404F0020BA
:1029D800FC1000201F85EB51F61E0020C0060020C9
:1029E800D0060020E0060020F01D0020F42A002078
:1029F800E2EEA36AA4EE226AA1EEA57AC5ED4B6ABF
:102A0800C4ED016A85ED4A6A84ED006A85ED4C7A69
:102A180082ED005A82ED013AC2ED027AC2ED034A14
:102A2800002B00F0DA81684B1B78DB077FD411B0EC
:102A3800BDEC068BBDE8F04F05F032B994427FF645
:102A48000CAE624B1E78002E00F0E280DFF8B8A1D1
:102A5800DFF8B0B1DFF8A881DFF8B091574628E079
:102A680018F805109847032D03462ADCC8B109EB6E
:102A7800850339F825105A88401A4FF47A7303FBF6
:102A880000F0521A40F6CA0390FBF2F000F57A7093
:102A98009842A8BF184640F2EE239842B8BF18469D
:102AA80000B24A4B2BF8020B1E780135B54280F272
:102AB800AF80072D3846DAF80430D1DDE9B29847FF
:102AC800034618B2EDE711B0BDEC068BBDE8F08FF8
:102AD8008A8A934238DA3E4B1A780146002A3FF434
:102AE80069AE5B783B4A01FB03F382FB0321DB17EA
:102AF800C3EB61115EE6B3F5FA6F327B9FED367A70
:102B0800BFBFA3EB0C014A43CCF5FA6192FBF1F28B
:102B1800C2F1640207EE902AF8EEE77A2F4A67EED0
:102B2800877AC2ED007AC2E5DFED2D7A23E62D4AD9
:102B38002D4B1178186801F0010111B0BDEC068B1E
:102B4800BDE8F04F10F082BAB3F5FA6FD4BFC2EB0C
:102B58000303C2F5FA634FF47A71C2F5FA6201FB16
:102B680003F3B3FBF2F120E6204BDB78002B7FF474
:102B780046AE1F4B1F481F7B152113F07FFD002F0A
:102B880040F0338100283FF43AAEDFED1B7A1B4951
:102B980078EE677AC6F5FA63FDEEE77A1AB217EEB1
:102BA800903A1BB21B0381FB0301DB17C3EBA11394
:102BB80002FB03F343F30F33334407EE903AF8EE86
:102BC800E77AC4ED037A1AE6583200204C24002034
:102BD800FC1000201F85EB510AD7233CC827002092
:102BE800000000004C440020504400205C320020CB
:102BF80078290020241F002000007A44D34D621059
:102C0800D0350020F40D0020F01D0020142C0020E9
:102C1800B94B1A78B94BD3F80090002A40F0E080FD
:102C28001346B749097804912A2904D1B548B64909
:102C3800007848800A80B54A01251570002E00F0FA
:102C4800AB81B34AB34F10780390B348DFF800C3A1
:102C5800C18B0191018C0291418A03980A91397BB9
:102C68000D910746ACFB07714908079201EB41013A
:102C7800AA4ADFF8E0A21268DFF8B4B20B95411A4D
:102C8800C8B206F1FF380590CDE90864400042F269
:102C980001010690B8F1030F02F480500C9002EA8B
:102CA8000102A8BF4FF003080025002B00F0DD80CB
:102CB8009B49019831F8151081424FEA4507C0F049
:102CC800D4800298814200F2D08009F596704AF8C3
:102CD800250009B2002A40F0E8802BF807100135DA
:102CE8004545E2DDDDE90864AE4227DD8D4FDFF8BA
:102CF80040B2069405EB450107EB4107002B00F0B5
:102D080099808749019831F8151088424FEA45089B
:102D180000F2908002988842C0F08C8009F5967085
:102D28004AF8250009B2002A40F016812BF808104D
:102D38000135AE4207F10607E0D1069C734B1B78BC
:102D4800002B40F02B816F4B012204201A70FFF7F3
:102D580053FC754A694BD2E901101B68D3601B1AF2
:102D68008B4202D9002382F82130704B1E78644BC5
:102D78001B780493002E00F02881664A674B117B6C
:102D88001B68654A03F48053B2F81E80578A0029ED
:102D980000F046816649674D83B1ACE1022A40F0F4
:102DA8002781427802EB820202EB820202F2EE22D3
:102DB80001339E4221F8022B00F0078115F81320F9
:102DC80005EB4300002AE9D1DAB2022A40F2608119
:102DD800032A40F00D814246EAE784ED027A22E6B2
:102DE800484B1B7883F001031BE7DFED537A534A06
:102DF80038EE678ABDEEC88A18EE103A1BB21B037C
:102E080082FB0312DB17C3EBA213002800F02A8110
:102E1800C6F57A7212B203FB02F343F30F3333445D
:102E280007EE903A464BF8EEE77A0122C4ED037AB2
:102E38001A70E4E45AF82510A9EB01010029FFF6FD
:102E480077AF3C4810F815104FEA45084044002970
:102E580000F0D080022940F0C880417801EB810160
:102E680001EB810101F2EE215CE75AF82510A9EB8C
:102E780001010029FFF633AF2E4810F815106F0036
:102E88003844002900F0C180022940F0AB80417825
:102E980001EB810101EB810101F2EE211B4C0020C5
:102EA800207009B2002A3FF418AF1E48254C069E30
:102EB80094F808E107EB050C00EB4C008153BEF1D8
:102EC800000F06D1039E022E7FF607AF0B9984F8F8
:102ED80008114188B0F804E0124830F81C00714429
:102EE800014408B2184981FB0041184CA1EBE0717C
:102EF800E05309B2F1E600BFD41D002018430020BA
:102F0800D02D002090060020D42D00202D1F002059
:102F18001D23002078290020D0350020404F0020B4
:102F2800F40D0020180E00205C3200204C240020F4
:102F380040330020482C002000007A44D34D621012
:102F480074120020580D002056555555640E002067
:102F5800ABAAAAAA202300208B48059C90F8080158
:102F680027F8141038B9039C022C7FF6DFAE864888
:102F7800012180F808117988B7F800C0B888614441
:102F8800014408B2814981FB0041814CA1EBE07109
:102F980024F8080009B2C9E67E4B07937E4806214B
:102FA80013F06CFB00287FF4CEAE7C4A7C4BD168D2
:102FB8001B6893605B1AC82B07D97A490B680120F4
:102FC80023F004030B6082F82100049B2A2B03D111
:102FD800754A764BD288DA80079A137801331370D2
:102FE800FFF73BBB3BF8071058E73BF8081099E69A
:102FF8000A88DDE6E9B2022948D90329F5D10C99F6
:10300800002940F09C8001998CE6E9B202293BD95D
:103018000329E7D10C99002940F0A38001993DE7E5
:10302800002B39D16049624D0DE0022A18D142784F
:1030380002EB820202EB820202F2EE2201339E428E
:1030480021F8022BC1D015F8132005EB4300002A04
:10305800EBD1DAB2022A1DD9032A01D14246EDE7A3
:103068000A88EBE7C6F5FA6212B203FB02F343F3F0
:103078000F33334407EE903A4E4BF8EEE77A187068
:10308800C4ED037AFFF7BBBB0A9907E70A9949E63B
:103098003A468DE63A46D1E7DFF80CA1444DDFF811
:1030A800F8B089460EE0022B22D1507800EB800060
:1030B80000EB800000F2EE2009F10109B1452AF881
:1030C800020B82D015F8193005EB4902002BEAD122
:1030D8005FFA89F3022B2ED9032B4FF015015846BE
:1030E80006D113F0CBFA00280CBF38464046E3E778
:1030F800BAF80000E0E700230EE0022A19D142786E
:1031080002EB820202EB820202F2EE2201339E42BD
:1031180021F8022B3FF459AF15F8132005EB4300B3
:10312800002AEAD1DAB2022A07D9032A01D1424693
:10313800ECE70A88EAE73846BEE73A46E6E71521AB
:103148001548CDE9083213F099FADDE9083200286C
:103158007FF459AF0D99019800290A9918BF0146C3
:10316800E0E515210C48CDE90E3213F087FADDE9C8
:103178000E3200287FF452AF0D99019800290A9960
:1031880018BF01468AE600BF580D00205655555510
:10319800640E00201D230020241F00205C32002024
:1031A800184300201C33002040330020D42D002079
:1031B800482C002074120020564B57482DE9F04146
:1031C8004C220124554E1C70002128F008F9544A5D
:1031D8005449554D002330460B6013600CF040FAFB
:1031E800214620460CF0DEFA214606200CF0DAFAD9
:1031F8006F7A4E4B391C1A8A4D4B93FBF2F318BF6A
:103208000121642BB8BF64230820C6F890310CF064
:10321800C9FA95F80A8018F100014FF0090018BFA3
:1032280001210CF0BFFAAB7B002B4AD0414C002F98
:1032380051D118F1000118BF01213F4D0A200CF0AF
:10324800B1FA2B68D90758D49A0746D4012105202A
:103258000CF0A8FA002107200CF0A4FA23685B05FB
:103268000CD501210B200CF09DFA344B1B7A083B3E
:10327800012B9CBF4FF4FA63C6F8D03261880C204A
:1032880001F001010CF08EFA21680D20C1F3C06134
:103298000CF088FA01210E200CF084FA01210F208D
:1032A8000CF080FA012110200CF07CFA244B1968EC
:1032B80000314FF0110018BF0121BDE8F0410CF0BA
:1032C80071BAEB7B1B4C002BB1D1216811F4802122
:1032D800B3D0002FADD00121AFE7012103200CF0BE
:1032E80061FA184B9B6A642BB8BF64230121042040
:1032F800C6F8D0300CF056FAA8E7134B1B68642BBD
:10330800B8BF642301210220C6F890300CF04AFAB5
:103318002B6899E728150020DC14002030000020D5
:103328003C150020D8140020002F0020105F00203A
:1033380040420F00404F0020CC350020D0350020FF
:1033480090360020B81E0020A048002008B50121B2
:1033580000200FF083FE012108460FF07FFE0121B7
:1033680002200FF07BFE104B1B7803F00503052BA2
:1033780017D0002108460FF071FE002101200FF040
:103388006DFE002102200FF069FE23F069FD002088
:103398000FF0D4F801200FF0D1F802200FF0CEF88A
:1033A800F3E71BF0A1F9E4E708190020022800D987
:1033B800704738B5C0EB0011084A094D094CC0EBFD
:1033C800810102EB4102034610462A6023701AF07D
:1033D80023FDBDE838401BF0B3BB00BF602F0020C1
:1033E800502F0020342F00202DE9F04FAB4BAC4D6F
:1033F8001B7895F80090DB0785B080463AD5A94C34
:10340800A94EB9F1010F60D070D3B9F1020F26D0DF
:10341800E37B83B1A38973B1A44B1B785BB10BF039
:103428006BFF002800F0D480237C83422CBF01234B
:103438000023337000E03378217A632906D89C484A
:10344800B9F1020F02785ED0002A73D1994A9945E2
:1034580038BF994682F8009005B0BDE8F08F964ACB
:10346800964B12881B889A42D2D94FF0010985F8E9
:103478000090CDE7904F8B4C3A88A9F10303012BBC
:1034880073D97B88D31A002BB8BF5B42142B05DC99
:10349800E388934257D82188914254D3824E884B6F
:1034A8001B78022BADD17A883B8880499B1A002B68
:1034B800B8BF5B42142B834A09789180CCBF0023A4
:1034C8000123B9F1010FD3809ED17C4B7A4A1B8826
:1034D800617C12885B1A9A4227DD7B4B1B889342DA
:1034E80096D24FF0000985F8009091E7764B724A22
:1034F8001B88617C12885B1A9A4289DC4FF00109AB
:1035080085F8009084E7AAB90124C0F80480047003
:10351800C1F164016D4C02FB01F284FB0241D21738
:10352800A2EBA1526432427090E74FF0020985F88D
:1035380000906DE74268664CA8EB0202A242C8BF41
:10354800417083DCE4E7B2EB430F574EA7DC5748E2
:103558005D495A4A00234FF0030986F8009085F820
:10356800009003700B80138099E7E388934227D873
:103578002188914224D37B88D31A002BB8BF5B42A1
:10358800142B8BDC484E237D4FF0000E86F800E0AC
:1035980085F800E0FBB1454AF1461370A1884A4A14
:1035A800B4F802C045489BB211FB03F111801CFB23
:1035B80003F33F4A038064210023517053606EE790
:1035C800B2EB430FD7DCB9F1030F3FF467AF58E70D
:1035D8000223337030E73F4923880968B2FBF3F2CE
:1035E8000132082A91F97410DFF8C090A8BF0822A8
:1035F800D3B2914289F800304AD0002948D03649E0
:10360800DFF8DCC091F800B00BF10101ACFB01A0C0
:10361800400800EB4000081A5845029038D02F495E
:103628004FF0760A0AFB001E9EF974E0964527D0F3
:10363800CDE900CA03934FF0FF3A014603E09CF935
:1036480074E0964527D001F1010C0099A1FB0C31DB
:103658004908019B01EB4101ACEB01019C461F4B62
:10366800BAF1000F0CFB013C03DABEF1000F08BFF2
:10367800824659450846E2D1039B5046002807DB9D
:10368800C0B2FFF793FE99F8003095F8009085E7EF
:103698004FF0000982E7039BF0E700BF5832002093
:1036A800F5100020002F00201C11002002330020FC
:1036B800FC100020F4100020FC320020F81000203C
:1036C800D02D0020D42D0020F61000206BCA5F6B8F
:1036D8007F969800502F0020342F0020602F002064
:1036E800ABAAAAAA684B1B68B3F5FA7F10B500F21B
:1036F800B680664BDA885C899889D989B2F57A6F81
:1037080084BF4FF47A62DA801A89B2F57A6F84BF7F
:103718004FF47A621A81B4F57A6F84BF4FF47A64F1
:103728005C81B0F57A6F88BF00201A8A88BF9881BB
:10373800B1F57A6F84BF4FF47A61D981B2F57A6FA7
:1037480084BF00221A8284429CBF00205881914283
:103758009CBF0022DA819A784D49012A91F85810C5
:1037680073D00A2930D00C2976D19FED4A7A4A4C79
:10377800A278062A97BF4949DFED496A01EB820121
:10378800D1ED166A217941B3013A032A6CD9454A29
:1037980045499378013B012B9CBF002393704B78DC
:1037A800052B40D803EB4300404A03EB800302EBB0
:1037B80043030A783E48022A03603CD900230B7071
:1037C8003C4B3D4A1A6010BD9FED3C7A012ACED190
:1037D8000A2955D19FED3A7AC9E75B78394907EE4E
:1037E800903A0A78F8EEE77A67EE877A07EE102AB9
:1037F800B8EEC77A27EE277AF4EEC76AF1EE10FA28
:10380800C5DD86EEA77AFDEEC77A17EE903A102B43
:10381800A8BF1023012BB8BF0123DBB29A4238BFDF
:103828001A460A70B3E700224A700A7820481F4BEC
:103838000360022AC2D8204BC2EB0211C2EB8102FC
:1038480003EB42021B4B1A6010BD1E485A700A292E
:103858000270B9D00C2913D09FED1B7AB6E74FF050
:1038680000500FF0BDFC44E7B7EE000A80EE260AD0
:1038780027F036FD2388984228BF1846208086E71F
:103888009FED127A73E700BFA04800207848002017
:10389800B04800200AD7A339305100208CB4020860
:1038A8006F120338B0310020342F0020F830002088
:1038B800FC1E0020502F0020602F00205304E93800
:1038C8000F506E3A901F00206F1203396F12833A1F
:1038D8002DE9F041BF490B78A3F11702022A0FD94D
:1038E800BD4A12F83300002840F02F81D800024466
:1038F80052782AB1B94A12F83330002B00F06781A8
:103908000024B74EB74F2546315B4B0803F0773399
:103918004FEA910C0CF0333CCB1ACA08A3EB0C030A
:1039280002F011329B1A03EB231303F00F33A7FBAA
:1039380003C2D209C2EB02229A1A11F001031CBF7A
:103948000135EDB2012A06EB040004F1080409DD93
:10395800022A40F08F80002B00F0878011F42F7F1F
:1039680000F08380102CCFD1013D022D00F282801F
:103978009D4F80200FF034FC00263B4607F5B17EB2
:103988004FF47A6C4FF064085A88B2F57A6FB3F83E
:103998004C2088BFA3F802C0B2F57A6F9A8888BF16
:1039A800A3F84CC0B2F57A6FDA8888BFA3F804C0D0
:1039B8009988B2F57A6F84BF0022DE80914293F82D
:1039C800732098BF9E80013A632A93F8742088BFB9
:1039D80083F873800132D2B2092A88BF83F87460F1
:1039E80003F16D00194600228C7A10F8015F01324C
:1039F800A54228BF0670032A01F10601F4D17633E7
:103A08007345C1D1794CA378042B00F0A78033B952
:103A18002388B3F5F07F84BF4FF4F0732380744C90
:103A2800FFF760FE2368734A1A40002A00F0C78037
:103A3800D80700F1C780590400F1BC801A0700F1CB
:103A4800A6809B0400F19F806B4AD37B002B00F07B
:103A58009380002382F82330137E83B1537E032B97
:103A68000CD0013B012B1AD913E020F05DFE002891
:103A78007FF478AF5A48FCF7C1FB79E70023BB8194
:103A88007B82A7F88230A7F88830A7F8F830A7F823
:103A9800FE3000233B83A7F88E30A7F80431574B3C
:103AA800DA79022A08BF01224FF0070008BFDA714D
:103AB8001CF0BEFA00286FD14FF48060FEF77AFD43
:103AC800002872D04E4E344604F17D05783661796F
:103AD80079B1207858B14B4B02E006339D4208D0AB
:103AE80013F8052C8A42F8D11A78002AF5D01CF070
:103AF80045FA0634A642EAD140200FF071FB4FF494
:103B080000700FF06DFB4FF400500FF069FB4FF49D
:103B180080400FF065FB4FF400300FF061FB4FF46D
:103B280080200FF05DFB4FF400100FF059FB4FF0B1
:103B380000700FF055FB4FF080600FF051FB4FF411
:103B48000040BDE8F0410FF04BBBD8001418646882
:103B5800002C7FF4CCAE17240C70C8E64FF48050CC
:103B68000FF03EFBE38AB3F57A7F37BF4FF47A72E2
:103B7800A378A378E2824AE7236842F20101194256
:103B88007FF467AF68E720480FF02AFB5CE71F481F
:103B98000FF026FB236854E707201CF0EFF94FF4D9
:103BA8008060FEF707FD00288CD14FF000600FF011
:103BB80017FB87E716480FF013FB23683EE743F02F
:103BC8000103236013480FF00BFB236833E7182326
:103BD8000B7095E66C2A002048E10208F0D0020834
:103BE800105F002081808080602F002030510020ED
:103BF800404F002009600002D03500201C2A002018
:103C0800682300206D2300200940000201600002A3
:103C180009200002086000022DE9F04F8DB0FFF77F
:103C280057FEDFF87891584FDFF8748118F044FB9D
:103C3800564A574BB2F87420ADF80620A3EB090397
:103C480000934FF0030A0026CDE90866CDE90A661D
:103C5800009BCDF818900793D8F810301B0606D5AE
:103C68004C4BC8F8043003F18833C8F804300123FA
:103C78008DF82C303423C8F80C300222BDF80630F9
:103C8800ADF8083002A906A80FF00CFB022202A921
:103C98004FF6FF700FF0FAFE3F4BBB42834629D226
:103CA8001C46658823888DF81560C5F30B05C3F39A
:103CB8000B00A91D1B0B0622ADF81010ADF8120061
:103CC80004A906A88DF814300FF0ECFA584606221D
:103CD80004A90FF0DBFE616883462A4606A80FF0A8
:103CE800E1FA616858462A460FF0D0FE1434BC4207
:103CF8008346D6D3022203A906A8ADF80C600FF0BC
:103D0800D1FA022203A958460FF0C0FE40BAC343B5
:103D1800022204A906A8ADF810300FF0C3FA0998DA
:103D280020BB0A989DF82C305BB990B1BAF1010A12
:103D38008AD105200DF0C2FD18F054FA0DB0BDE887
:103D4800F08FD8F8103043F08003C8F810300028FE
:103D5800ECD199F80030AC2BEBD199F80130BE2B9F
:103D6800E7D10FF0ADFE0028E6D1E2E708ABC0F1DD
:103D780004020021184427F032FB089906A80FF026
:103D880037FACDE90960CDE7F41D03088CB40208C1
:103D98000000040823016745E419030800F003083C
:103DA8000020024008B512F099FC054B4FF4FA4286
:103DB8001A80FFF731FFBDE80840FEF715BA00BFCB
:103DC80030510020014B186026E700BF404F00200B
:103DD8002DE9F84F18F070FA2B4B2C4A934250D229
:103DE8002B4F03F114069B464FF00108294C2588F8
:103DF80062197DB1BA420DD2052D0BD936F8143CA3
:103E08006188C3F30B0399420AD0144625886219C6
:103E1800002DEFD156F8101C584612F03DFC0FE06B
:103E2800637913F0030AF0D156F8101C94F8049043
:103E3800584612F031FC36F8141CB9EB113F11D07A
:103E48004FF00008114B0BF1140B9B4506F11406BB
:103E5800CCD3FFF73DFDFEF7C7F918F0C3F940468C
:103E6800BDE8F88F36F8123C56F8100CAA1FC3F3B9
:103E78000B039A4204F10601A8BF1A4627F08BFAF1
:103E8800E0E74FF00108E4E7E4190308F41D03082C
:103E98000000040802F003082DE9F04FB0F90840CB
:103EA8000C81E4B2382C8FB00D4600F0C081064674
:103EB800904621D9802C00F0F58140F2DC80822CDC
:103EC80000F0A380C0F09E82A02C00F08982FE2C16
:103ED80040F0DA80BB4C04F1080634F9021B28468E
:103EE80089B20FF053FAA642F7D10124234620469F
:103EF800AB810FB0BDE8F08F042C00F00A8240F2CD
:103F08002E81202C44D040F27181242C00F05B8259
:103F1800282C40F0B9800B68DFF8CC82AA4E591CD7
:103F2800022229601A702B6806275A1C2A601F7003
:103F38002B680A22591C29601A702B6801241A1947
:103F48002A601C70B8F8001028460FF01FFAB8F85D
:103F5800021028460FF01AFA2B681A192A601F70E7
:103F68002B685022191929601A702B680022191918
:103F780029601A70318828460FF008FA7188284697
:103F88000FF004FA23462046AB810FB0BDE8F08F4E
:103F98008E4C8F4962882B680532A1FB0202C2F35E
:103FA800C702581C28601A7022882B680532A1FBAA
:103FB8000202C2F3C702581C28601A70A3882A6834
:103FC8000533A1FB0313C3F3C703511C2960137006
:103FD800A18928460FF0DAF92B68627A591C296002
:103FE8001A702B68A27A591C29601A7061882846B1
:103FF8000FF0CCF9218828460FF0C8F9A188284687
:1040080001240FF0C3F92346BDE70B68714A724CCF
:1040180011786E4A714E581C28601970918928468B
:104028000FF0B4F923886A492A680533A1FB031302
:10403800DB08FF2B02F10101A8BFFF2329601370E1
:10404800B16881F3100189B228460FF09FF93168F1
:1040580001F30F0189B228460FF098F92B68604ADE
:10406800591C127829601A702188284601240FF0FB
:104078008DF923463BE7542C00F0CD806E2C00F0E0
:104088007D81522C00F0928029462046FCF7F8F8F2
:1040980000287FF42AAFD6E90073742C3A4601F061
:1040A800A78241F27D82772C00F0FC81E62C40F05B
:1040B80057829F4201F08381D5E9002CACEB0202C4
:1040C80002930393044602F1FF383B4600229045D1
:1040D80003F1010E06A902A81BDDC6F800E093F85B
:1040E80000E02B68ADF810E0CDE9063CFFF7D4FE00
:1040F8002A68069BD5F804C09B1A013303F0FF0316
:10410800B8EB0308D6E900325CBF0134E4B29A4246
:10411800DCD13760CDF81CC02F68E4B14FF000083F
:10412800C14607F1010ACDF818A087F80090336856
:104138005A1C32601B78ADF81030002206A902A87C
:10414800FFF7AAFE069B08F10108A3EB0A033B70E0
:10415800A045069FE5D101242F60234613E7022CD2
:1041680000F08B8000F29180012C8DD10B68002229
:10417800591C29601A702B685A1C2A601C702A68FE
:104188002921531C2B6023461170FCE63A467B1C00
:10419800336012F8023B134932607A784A71042B73
:1041A8000B7141F21D83FF2B01F036822A68002132
:1041B800531C01242B60204623461170AB810FB09D
:1041C800BDE8F08FD42D0020282F0020002F0020DC
:1041D800CDCCCCCC02330020FC320020C4320020ED
:1041E800F4100020580D0020202F0020052C7FF40B
:1041F8004BAF0B22B54928460FF098F80822B4496E
:1042080028460FF093F801240722B24928460FF0F8
:104218008DF82346B7E60B6800215A1C2A601970EE
:104228002A68012413192B6023461170ABE60A682B
:10423800A94B0124511C296014702A680521101902
:10424800286011702A680A211019286011702A68DC
:1042580000211019286011702A681978101928602F
:1042680011702A6859781019286011702A6899788D
:1042780013192B602346117085E6042297492846B6
:1042880001240FF053F823467DE60B680422591CDD
:1042980029601A702B680022591C29601A702A6834
:1042A800062185E78E4B1F78023717F0FF073FF48A
:1042B8001CAE8C4EDFF83C82DFF86CA2DFF86C9203
:1042C80037440A24013617E0322C00F0FB80A4F1B1
:1042D8003C00C0B2132841F2508100232A68511CC7
:1042E800296014702A68B74202F10101296013702D
:1042F8003FF4FBAD16F8014B0A2CE5D1B9F80030B4
:104308000533A8FB0323DB08FF2BA8BFFF23DBB281
:10431800E4E72246744928460FF008F800212846A9
:104328000FF034F82B68714900265A1C2A601E7059
:104338002B6801241A192A601C702B680A22181984
:1043480028601A7028460EF0F1FF2B681A192A60A7
:104358001E702B681A192A6031461E70202206A882
:1043680027F03DF806A9202228460EF0DFFF2A682C
:10437800022113192B602346117004E65C4C5D4939
:1043880023882A685C4E0533A1FB0313DB08FF2B47
:1043980002F10101A8BFFF2329601370B16881F3FE
:1043A800100189B228460EF0F1FF17F0BDFB014657
:1043B80028460EF0EBFF316801F30F0189B2284659
:1043C8000EF0E4FF50E64D4B93F83421002A76D0E6
:1043D800D3F83811284601240EF0C0FF2346D2E551
:1043E800474B084619680EF0B9FF464B284619682E
:1043F8000EF0B4FF444B2846196801240EF0AEFFB6
:104408002346C0E5364B1E78033616F0FF063FF408
:104418006CAD3E4B3E4F1E4403F101094FF00A08B4
:1044280020E0B8F1500F00F08380B8F1320F01F0AE
:10443800B080A8F13C00C0B2132841F2C980002422
:1044480021462B685A1C2A60284683F800800EF003
:104458009DFF214628460EF099FF4E453FF445AD95
:1044680019F8018BB8F10A0FDBD12A4B2A499C684D
:104478001A68087804EB84044FF6FF7164008C42D4
:10448800A8BF0C469142A8BF114624EAE47421EA69
:10449800E1712328A4B289B2D3D12048DB68838094
:1044A800C280CEE79F421BBF7B1C33600146397830
:1044B8001B4A284601240BF081FA234663E5194B71
:1044C800196887E7BAF800301AE700BFD0E5020894
:1044D800DCE50208E8E502081C2F0020BCE502081C
:1044E800B02D002004B502083B2F0020C4E50208C7
:1044F800FC320020CDCCCCCCC4320020580D00209A
:10450800ACF7FF1FB0F7FF1FB4F7FF1F14B5020881
:10451800C011002020110020D02D0020D42D002013
:104528005D750008404F0020041100201011002084
:104538000A4B9C68196804EB840464004FF6FF7307
:104548009C42A8BF1C469942A8BF194624EAE474B5
:1045580021EAE171A4B289B273E700BF38110020E3
:10456800F52C01F05380292C01F0D680392C01F06C
:104578002D81212C01F0E6800B3CD91BEF2C00F299
:104588001E8701A050F824F061520008C7530008A4
:10459800C7530008C7530008C7530008C75300088B
:1045A800C7530008C7530008C7530008C75300087B
:1045B800C7530008C7530008C7530008C75300086B
:1045C800C7530008C7530008C7530008C75300085B
:1045D800C7530008C7530008C7530008C75300084B
:1045E800C7530008C7530008F5510008C75300080F
:1045F800D1510008C7530008AF510008C75300083D
:10460800C7530008C753000887510008C75300085C
:10461800FB500008C7530008C7530008C7530008D9
:10462800E3530008C7530008D1530008C7530008D4
:1046380011540008C75300087D530008C7530008E9
:10464800C7530008C7530008C7530008F33E0008C3
:10465800C7530008EF520008C7530008C7530008A3
:10466800D7520008C7530008C7530008C7530008AB
:10467800C7530008C7530008C7530008C7530008AA
:10468800C7530008C7530008C753000897520008CB
:10469800C7530008AB540008C7530008C7530008A5
:1046A8006D540008C7530008C7530008C7530008D3
:1046B800C7530008C7530008C7530008C75300086A
:1046C800F7540008C753000851500008C7530008A2
:1046D800054F0008C7530008B34D0008C75300082A
:1046E800994D00087B4D0008174C0008C753000877
:1046F800C7530008C7530008C7530008C75300082A
:10470800C7530008C7530008C7530008C753000819
:10471800C7530008C7530008C7530008C753000809
:10472800C7530008C7530008C7530008C7530008F9
:10473800C7530008C7530008C7530008C7530008E9
:10474800C7530008C7530008C7530008C7530008D9
:10475800C7530008C7530008C7530008C7530008C9
:10476800C7530008C7530008C7530008C7530008B9
:10477800C7530008C7530008C7530008C7530008A9
:10478800C7530008C7530008C7530008C753000899
:10479800C7530008C7530008C7530008C753000889
:1047A800C7530008C7530008C7530008C753000879
:1047B800C7530008C7530008C7530008C753000869
:1047C800C7530008C7530008C7530008C753000859
:1047D800C7530008C7530008C7530008C753000849
:1047E800C7530008C7530008C7530008C753000839
:1047F800C7530008C7530008C7530008C753000829
:10480800C7530008C7530008C7530008C753000818
:10481800C7530008C7530008C7530008C753000808
:10482800C7530008C7530008C7530008C7530008F8
:10483800C7530008C7530008B14B0008C753000806
:10484800C7530008874B0008C7530008C753000820
:10485800C7530008C7530008C7530008C7530008C8
:10486800C7530008C7530008C7530008C7530008B8
:10487800C7530008C7530008C7530008F33E000891
:10488800C7530008514B0008C7530008B94C00082B
:10489800514C00085F4D0008C7530008374B00080B
:1048A800C75300080F4B0008C7530008B14A000857
:1048B800C7530008834A0008C7530008C7530008B5
:1048C800614A0008334A0008154A0008E749000809
:1048D800C7530008C5490008C7530008C753000854
:1048E800C7530008C7530008C7530008C753000838
:1048F800C7530008C7530008C7530008C753000828
:10490800C7530008C7530008C7530008C753000817
:10491800C7530008C7530008AB490008C75300082D
:10492800C753000851490008C7530008C753000877
:10493800C7530008C7530008C7530008C7530008E7
:10494800C75300081B5300087B1C33603B780F2BB0
:1049580000F23585BA1C3260C3EBC303C14A7978CB
:10496800D154F91C31601344BA785A703A1D326038
:10497800FA789A707A1D32603A79DA70BA1D326024
:104988007A791A71FA1D3260BA795A7107F10802F8
:104998003260FA799A71012418F0C0F82346FFF7BB
:1049A800F2BA30460EF0B0FCAF4FB88130460EF088
:1049B800ABFC012478812346FFF7E5BA30460EF0B8
:1049C800A3FCAA4F788230460EF09EFCB88230468F
:1049D8000EF09AFC0124F8822346FFF7D4BA7B1C18
:1049E800336030463F780EF09BFCD6E900134A1C32
:1049F80032609F48097881709B1A022B00F39187D7
:104A08009C4B0124DF712346FFF7BDBA9A4B9B49A3
:104A18001B687622184626F0BEFC01241E2120229F
:104A2800817202742346FFF7AEBA3A467B1C3360A4
:104A3800934B12F8021B197032607A785A70FA1C7C
:104A48003260BA789A7030460EF05EFC8D4B0124C5
:104A5800D8802346FFF797BA30460EF055FC894FA9
:104A6800388030460EF050FC788030460EF04CFC12
:104A78000124B8802346FFF786BADFF82C8298F81D
:104A88000030002B3FF431AA7F4F002430460EF04F
:104A98003BFC19F01FFD98F80030A7EC010A01341F
:104AA8009C42F3DBFFF721BA0D2940F088847B1C78
:104AB80033603C78072C00F28284DFF8F0813046BE
:104AC8000C270EF021FC07FB04F708EB0704A08075
:104AD80030460EF019FCE08030460EF015FC3368C5
:104AE80020811A46591C316012F8021BA1723260EB
:104AF8005B78E37230460EF0EFFB012448F80700BC
:104B08002346FFF740BA7B1C33603878070600F16C
:104B180077875E4B1B78DE073FF5E7A9032828BF98
:104B280000200124FEF742FC2346FFF72CBA574B1E
:104B38001B78DC073FF5D9A90124FFF733F9FFF704
:104B480047F92346FFF71FBA4B4B1868034600F195
:104B58001E0100E037683A467C1C346012F8024BAC
:104B68001C7232607A785A72FA1C3260BA789A7279
:104B780006339942EED119F013FBFFF7B6B97B1C47
:104B8800434933600A783B78002A40F0DA860422E9
:104B98000A70404A9B0013800DF024F93E4B012413
:104BA80018602346FFF7EFB93B467A1C326013F8CA
:104BB800024B3360FA1C7B783260B978002C00F025
:104BC800C586012C7FF491A9052B3FF68EA90529EE
:104BD8003FF68BA999423FF488A9304E1A2001FB71
:104BE800006213FB00F311685068D2F808C0D76858
:104BF800995133445860C3F808C0DF60116950699F
:104C080058611961128B1A832346FFF7BCB97A1CC5
:104C18009A42326018BFBB1C39781ABF33607B7860
:104C28000023002900F0F7864FF40040FDF7E4FC6C
:104C3800164B1B78DB0700F10987194B002201246A
:104C48001A702346FFF79FB9104B1B78D8073FF51A
:104C58004CA9144B4FF4C87201241A802346FFF75D
:104C680092B900BF70250020A01F002030510020FD
:104C7800F42C0020BC1F0020502F00200CCF02086D
:104C8800981F002078290020D028002058320020C2
:104C98000A1C0020301C0020A4120020F83000203C
:104CA8004D120020CA110020B02D0020942A0020A7
:104CB800092940F38483DFF888837B1CD8F80040F7
:104CC80033602179E2783B78E370914207F1020280
:104CD80008BF23713260E179A2797B78A371914290
:104CE80008BFE37104F1090204F10C013368581C90
:104CF8003060187802F8010B9142F7D19A1C3260A3
:104D08005A78642AA8BF6422D91C227331609A7821
:104D180022701A1D3260DB78637030460EF0F4FAA8
:104D2800D6E90073DA1B002AE08100F3D485DB1B87
:104D3800012B0ADD3B46791CD8F80020316013F8B6
:104D4800021B117433607B78537401241BF07AFDC5
:104D58002346FFF718B9B54B1B78D9073FF5C5A807
:104D6800B34A1378012443F0040313702346FFF772
:104D78000AB9AE4B1B7813F0010140F020837B1C6D
:104D880033603878012408F0ABF82346FFF7FBB806
:104D98007B1C3360A74B3A789A7030460EF0C0FA05
:104DA80030460EF0BDFAFFF7A0B830460EF0ACFA68
:104DB80030460EF0A9FA30460EF0A6FA30460EF04C
:104DC800AFFA33689C4C1A46581C2168306012F8B8
:104DD800020B81F8460032605B7881F84730304634
:104DE8000EF09EFA30460EF09BFA30460EF098FA16
:104DF80030460EF095FA304627680EF085FA388767
:104E08003046D4F800800EF07FFAD6E90073DA1B3A
:104E1800012AA8F836000ADD7A1C236832603A783D
:104E280083F82D2030460EF07BFAD6E90073DA1BA2
:104E3800032A0BDD304627680EF066FA788630467E
:104E480027680EF061FA7368B8863768DA1B012A9A
:104E580004DD30460EF058FAD6E90073DA1B0D2A45
:104E680032DD7A1C236832603A7883F85120304664
:104E78000EF056FA30460EF053FA30460EF050FA5D
:104E880030460EF04DFA30460EF04AFA336827687D
:104E98005A1C32601B7887F8563030460EF034FAC8
:104EA800B881304627680EF02FFA78823046276896
:104EB8000EF02AFA336822683883591C31601B784F
:104EC80082F83030D6E90073DB1B062B14DD304640
:104ED8000EF026FA30460EF023FA30460EF020FA8D
:104EE80030460EF01DFA30460EF01AFA30460EF033
:104EF80017FA30460EF014FA20683CE67B1C336043
:104F08004D4CDFF840813B78A8F8063030462768DA
:104F18000EF0FAF978803046D4F800900EF0F4F9E3
:104F2800D6E90073DA1B072AA9F8000015DD304618
:104F38000EF0EAF9A8F80A0030460EF0E5F9A8F8EC
:104F48000C00304627680EF0DFF9B8803046276835
:104F58000EF0DAF97368F8803768DA1B032A0BDD7C
:104F680030460EF0D1F9A8F80E0030460EF0CCF914
:104F7800D6E90073A8F81000DA1B002A06DD791CB0
:104F880022683160397882F826103768DB1B092BD4
:104F980025DD7B1C33603B7888F8023030460EF004
:104FA800BFF930460EF0B0F9A8F8060030460EF00A
:104FB800ABF93368A8F808001A46591C316012F892
:104FC800021B88F8151032605B7888F81630304676
:104FD800D4F800800EF098F93768A8F84C00736888
:104FE800DB1B082B11DD7A1C236832603A7883F8C2
:104FF800602030460EF088F930460EF085F93046CC
:105008000EF082F930460EF07FF9FEF76BFB22F0C6
:10501800D1FE0A4B1B68002B00F052842068012443
:1050280017F010FE2346FEF7AEBF00BF583200202F
:105038002C1F0020A01F0020502F00204C1F0020F4
:10504800FC1E0020784800203B467A1C3260DFF8BE
:10505800208313F8022B88F801203360B74A7B7845
:105068001370FB1C3360B64CBB7823713B1D336057
:10507800FB78092BA8BF09233046A3700EF044F92A
:10508800D6E90073DA1B012A208005DD30460EF0D0
:105098003BF9D6E900732082BB423A4640F0A1842E
:1050A800D21B072A1FDD3B467A1C326013F8022BFD
:1050B80088F8042033607B7888F80330FB1C336061
:1050C800BB7888F8003030460EF01EF9A8F81A00B0
:1050D80030460EF019F93368A8F812005A1C3260ED
:1050E8001B7888F814300124FEF7FCFA2346FEF7F3
:1050F8004ABF7B1C934C33603B78237230460EF0DA
:1051080003F9E08230460EF0FFF8608230460EF078
:10511800FBF83368A0825A1C32601B78637373688B
:105128009A1A032A00F3AA833768DA1B052A00F3C0
:105138009583002A7EF7D9AE7A1C32603A78E276F7
:105148003768DB1B052B13DD7B1C33603B786376EC
:1051580030460EF0E5F830460EF0E2F830460EF034
:10516800DFF830460EF0DCF830460EF0D9F8376834
:105178007368DB1B002B3FF713AEFEF7B6BE7A1C35
:1051880032607149387808709B1A002B7EF7ADAEF3
:10519800BB1C33607B78003318BF012301244B709C
:1051A8002346FEF7F0BE30460EF0AEF8674F386083
:1051B80030460EF0A9F8786030460EF0A5F80124C4
:1051C800B8602346FEF7DFBE30460EF085F8604B28
:1051D80093F83421C3F83801002A7EF486AE012200
:1051E80083F8342114461346FEF7CDBE7A1C32608C
:1051F8003C78132C00F2E380BA1C32607878019373
:105208000AF016FC002800F0DA80062202FB04F2FD
:10521800504C0178A154F91C31601444BA7862707A
:105228003A1D3260FA78A270019B7A1D3260397992
:10523800E1709A420AD0BB1D33607B792371FB1D54
:105248003360B8790AF0F4FB0378637101241BF02A
:1052580055FA2346FEF797BE3F4B00221029084611
:10526800C3E90022C3E902221A7428BF10200029CA
:105278003EF43BAE31680A460132326012F8014C06
:1052880003F8014B541AA042F6D8FEF72EBE3B464F
:105298007A1C324C326013F8022B227133607B780F
:1052A800637130460EF030F8336820805A1C326043
:1052B8001B78A37130460EF027F8336860805A1CBB
:1052C80032601B78E37101242346FEF75CBE244B51
:1052D80008370132326012F8011C03F8011FBA4284
:1052E800F7D1FEF702BE7B1C33601E4B3A785A702A
:1052F80030460EF015F8D6E900329A423EF4F5AD84
:105308005A1C3260184A1B78137101242346FEF791
:105318003ABE164B1B78DA0751D40D4B93F834215B
:10532800002A00F09882D3F83801FEF74BFD0124DB
:10533800FEF74EFD2346FEF726BE00BF901F002055
:1053480030510020D03500206C2A00207019002030
:10535800580D002068230020641F00201C2A00200C
:10536800CF350020B01F002094290020583200209B
:10537800784800200723B1FBF3F3C3EBC300091AF5
:105388001DD1DBB203F1FF385FFA88F8002B3EF439
:10539800ACADDFF8789308F101080C46CB4609F16B
:1053A800080A531C336092F9003099F902209A4296
:1053B80000F0158399F90A209A4200F0F2824FF022
:1053C800FF342346FEF7DFBD7B1C3360C14B3A78C0
:1053D800DA7301242346FEF7D6BD7B1C33603B7885
:1053E8001F2BECD80529EAD130460DF075FFD6E918
:1053F8000032D21A002A7EF778AD5A1C3260B64ABB
:105408001B78D370FEF771BD7B1C336038781D287C
:10541800D5D8BB1C336079780329D0D8AF4ADFF8D8
:10542800F0C20A2303FB00F3D018FC1C417134605E
:10543800B978D1543B1D3360FB7843707B1D3360D2
:105448003B798370BB1D33607B79C370FB1D336070
:10545800BB79037101244FF0FF33CCF800302346A9
:10546800FEF791BD9E4A1278012A3EF63EAD3946B6
:105478007A1C3260DFF89C8211F8022B88F802202F
:10548800FA1C9B1A3160012B7978326040F3D18283
:1054980030460DF039FF0124A8F800002346FEF736
:1054A80072BD7B1C336097F80080B8F1110F86D865
:1054B800BB1C33608B4C7B7804F8183030460DF0F9
:1054C80023FF40F6CA039842A8BF184640F2EE23CD
:1054D80004EB48019842B8BF184601241923A0F2EA
:1054E800EE2292FBF3F223464A70FEF74CBD7E4B48
:1054F8001C68002C00F05382236820465B6898479C
:10550800074630460DF000FF3F2840F2348241F252
:105518006F73984203D8754B002298801A70D6E9A9
:105528000032D21A012A7EF7E0AC5A1C3260DFF84A
:10553800BC811A7888F80220FF2F3EF4D6AC9A1C5A
:105548000EA9326000225F7801F8202D204620F055
:1055580033F99DF81830BB4203D03946204620F075
:105568002EF9D6E900329A423EF4BFAC5A1C32609A
:105578001B7888F80830FEF7B8BC1EF051FD0028EB
:105588003EF4ABAE03780A2B3EF6A7AE4388FEF78F
:10559800B7BED7E9001404EB84046400FEF7CEBF5D
:1055A800442C7EF4DDAF9F4240F08A80504B024687
:1055B80098712B68591C29601A70B8F1000F3EF4D5
:1055C80094AC4C4BC8F8003001242346FEF7DBBCF2
:1055D8001EF026FD00283EF432AF03780A2B3EF673
:1055E8002EAFD0E9013103EB83035C00FEF7A6BFC1
:1055F8009F421BBF7B1C3360014639783E4A2846D0
:1056080001240AF0DBF92346FEF7BDBC9F427EF475
:10561800BDAD374BFF221A714FF00009374C07F028
:10562800BBFA49462022364884F8009025F0D7FE78
:105638008DF818909DF81830072B00F20A81314F29
:105648002F4E4A469DF8183003EB430307EBC3037C
:105658005B7CE3B19DF8183003EB430307EBC3030E
:1056680020215B699BB19DF8183003EB430307EBDE
:10567800C303586946F822000DF068FB237856F8F2
:1056880023000DF0DDFC22780132D2B222709DF8A1
:1056980018300133DBB28DF818309DF81830072B1D
:1056A800D0D92B68591C29601A70B8F1000F3EF444
:1056B8001CAC154BC8F8003001242346FEF763BC28
:1056C8007B1C33603A780A4B012A9A717FF671AFD6
:1056D80075E600BFD0350020B42E0020C41200208B
:1056E800AC310020482C0020C42E00204E3200206F
:1056F800580D00204D020008817C0008141F00206E
:10570800801E0020904F0020759D0108105F00202A
:105718002C000020B03100207B1C33603B780A2B22
:1057280000F09280502B40F0858030460DF0ECFD63
:10573800C84F388030460DF0E7FD012478802346B5
:10574800FEF721BC3A467B1C336012F8023BDFF8B7
:105758003C8303EB83035B00A8F8023032607B785C
:1057680003EB8303FA1C5B00A8F800303260BB78B7
:1057780003EB83035B003046A8F804300DF0C4FD4A
:105788003268A8F80C001346511C316013F8021B4C
:1057980088F809103360527888F80A207268D31A9A
:1057A800052B7EF7A2AB30460DF0AEFDA8F802003F
:1057B80030460DF0A9FDA8F8000030460DF0A4FD14
:1057C8000124A8F804002346FEF7DDBB7B1C3360E8
:1057D8003B780A2B1DD030460DF0A2FDFFF7DDBA4D
:1057E8009D490978914205D8022B7EF4DFACFF2A47
:1057F8007EF4DCAC2B6801241A192A601C70B8F1FD
:10580800000F3EF472AB954BC8F800302346FEF704
:10581800BABBBB1C3360924B7A781A70FA1C3260A0
:10582800BA785A703A1D3260FA789A700124234681
:10583800FEF7A9BB30460DF067FD012430460DF098
:1058480063FD2346FEF79FBB30460DF05DFD854F97
:105858006FE74A4625E7FEF7DFF968E530460DF0C1
:105868005FFD30460DF038FD30460DF059FDD6E9A4
:105878000073DA1B002A7FF764AC5DE430460DF054
:1058880043FDE08330460DF03FFDD6E90073DA1B97
:10589800032A20847FF749AC3B467A1C326013F810
:1058A800022B227633607B78A37630460DF02CFDF0
:1058B8000A22A0F57A7393FBF2F32377736833E433
:1058C80069486A496A4A6B4B036001240B6013609C
:1058D8002346FEF758BB7A1CD8F8001032609A1A93
:1058E80038780872002A19DDBA1C32607A784A7151
:1058F8003768DA1B002A7FF71AAA791CD8F8002023
:105908003160397811713768DA1B002A7FF70FAADE
:10591800791CD8F8002031603978D1713768FFF7E1
:1059280006BA30460DF0FCFC3368534A591C316006
:105938001B78D371304601240DF0F2FC2346FEF7A4
:1059480022BB042A7EF4D1AAFFF723B9022B3EF624
:10595800CCAA02293EF6C9AA99423EF4C6AA4748EB
:10596800762201FB0201012403FB020025F013FD4E
:105978002346FEF708BBC208DFF81481013200F0A5
:1059880007030133D0B2014688F800001A462046C2
:1059980088F801301FF08AFAA8F80400BFE5FF274D
:1059A800AFE55746BB7030460DF0AEFC3368388023
:1059B8001A46591C316012F8021BF97032605A7885
:1059C8003A71DA1C32609A78BA711A1D3260013461
:1059D800DB787B71A0457FF4E4ACFEF786BA5F46BE
:1059E800E0E730460DF09CFCD6E9003293423FF4E4
:1059F8007AAB591C31601B78E3703768FFF750BBEE
:105A080000F07F00062828BF0020012407F01CFBB7
:105A18002346FEF7B8BA1A491A480A68003318BF6D
:105A2800012322F40042012403700A602346FEF792
:105A3800AABA154ABB781288012412FB01F292FB1C
:105A4800F3F22346A8F80020FEF79DBA02F09CFA6C
:105A5800FFF7F3B8282F0020B02D00203D020008E2
:105A68001C2F0020202F002060260020D426002094
:105A7800BC270020DD080108BC1F0020602F002083
:105A88001C3300204D120020501F0020002F002042
:105A98004E32002008B5FEF7BFF8BDE80840FEF713
:105AA80097B92DE9F843D24C2DED028BA368204617
:105AB8009847002800F0D080CE4B1B780122042B99
:105AC80084F8382000F0CC80B4F91A3006EE903A09
