:020000040000FA
:06000000020090020C0357
:03000B00020C0BD9
:03001300020C13C9
:03001B00020C1BB9
:03002300020C23A9
:03002B00020C2B99
:03003300020C3389
:03003B00020C3B79
:03004300020C4369
:03004B00020C4B59
:03005300020C5349
:03005B00020C5B39
:03006300020C6329
:03006B00020C6B19
:03007300020C7309
:03007B00020C7BF9
:03008300020C83E9
:20008B00020C8BE47375811502019480FE53BEFBE5BE30E6FB0075C680E5BE30E6FB00AE68
:2000AB00BE4306048EBE22D2A3D29112009875AE089000320206ADAD82AE83AFF0C007C012
:2000CB0006C005120694AC82C004120694AB82D004EC6203C003120694AC82D003D005D099
:2000EB0006D0078C017A008D828E838FF0E9120869A3EA120869EC6BF508C007C006C00550
:20010B00120694AC82D005D006D0078D828E838FF0120884F9A3120884890279008C007BF6
:20012B0000E84201EB42028D828E838FF0E9120869A3EA120869E5086204C007C006C0059A
:20014B00C004120694AB82D004D005D006D007EBB504028004758200228D828E838FF012AD
:20016B000884FDA3120884FEC3E49D74809E50047582002275820122C2AF75A80075B80094
:20018B00759A00020C0080FE227F008F09C00712085543FF08C2A343FE02C291900019124A
:2001AB0006AD12085CE582D0077011900C00E0FDBDFF028007C007120183D007C007120081
:2001CB00B212061A1206E6D007D291C2A3BF00028035BF0102804FBF0A030202A4BF0B034B
:2001EB00020302BF0C030202E5BF1B0302031FBF2B030203C7BF3B03020402BF4D03020561
:20020B001FBFFF0302060FC007120694858209D007747FB5090C758279C00712069FD00700
:20022B0080AB7F0180A7C007120694AD82D007AB097C006303FF8D017A00E9B50348EAB543
:20024B000444E4B50902802F7401B5090280287402B5090280217411B50902801A7421B51B
:20026B00090280137431B50902800C7443B5090280057FFF0201D875827912069FAC09743F
:20028B000A2CFF0201D8BD7F0B75827912069F7F000201D88D090201D875820712069F75E0
:2002AB00821012069F75820012069F75820112069F75820212069F75821112069F75822106
:2002CB0012069F75823112069F75824312069F75827912069F7F000201D875820112069F5C
:2002EB0075820412069F75821012069F75827912069F7F000201D875821012069F7582004D
:20030B0012069F75820012069F75827912069F7F000201D890000A75F0401200C2E5827002
:20032B00057FFF0201D875827912069F120694AD82C005120694AC82D0057B006304FF8D70
:20034B00017A00E9B50406EAB5030280057FFF0201D8758279C00512069FD0057512007530
:20036B0013F08D037C0074012BF514E43CF515850A82850B83C00512075E90F000E0F58259
:20038B0012069FD0057A017BF07C008D011DE960268A828B838CF0120884F9A3AA82AB8320
:2003AB008982C005C004C003C00212069FD002D003D004D00580D47F000201D890000A7557
:2003CB00F0401200C2E58270057FFF0201D875827912069FC2AF75A80075B800759A00AC3C
:2003EB000AAD0BC005C0048C828D8312008ED004D0057F000201D890000A75F0401200C2D3
:20040B00E58270057FFF0201D875827912069F120694AD828D0479007AF07B008D007E00A0
:20042B00740128F50CE43EF50DE50A30E021150A74FFB50A02150B89828A838BF074FF1244
:20044B000869A3A982AA83050CE4B50C02050DC005C004C003C002C001120694AE82D001DF
:20046B00D002D003D004D00589828A838BF0EE12086909B900010AEC62067C00C3EC9D50E6
:20048B0032C006C005C004C003C002C001120694A882D001D002D003D004D005D0068982B4
:2004AB008A838BF0E8120869A3A982AA83E862060C80C9C006C003C002C001120694AD82B7
:2004CB00D001D002D003D006EEB5050280057FFF0201D8E50C30E01389828A838BF074FF23
:2004EB00120869050CE4B50C02050D750E00750FF0850C10850D11850A82850B831207909C
:20050B00E58270057FFF0201D875827912069F7F000201D8120694AE82BEFF26120694E5CA
:20052B0082701AFD7C03ED2400F582E434F0F583ECF00D0CBC200040ED8D0680727FFF021D
:20054B0001D8C006120694AD82D00690F000EDF074012400FAE434F0FB7C00EE6205790003
:20056B00C3E99E5032C006C005C004C003C002C001120694A882D001D002D003D004D0051A
:20058B00D0068A828B838CF0E8120869A3AA82AB83E862050980C9C006C005120694AC8276
:2005AB00D005D006ECB5050280057FFF0201D890F000E0F582C006120827E582D00670056F
:2005CB007FFF0201D87B017CF07D008E021EEA60288B828C838DF0120884FAA3AB82AC8302
:2005EB008A82C006C005C004C003120827E582D003D004D005D00670D275827912069F7FF0
:20060B00000201D875821F12069F7F000201D853F1FDAEFF53063F4306408EFF43F3305378
:20062B00F40F43FD1075FAF874E055FCFF43070B8FFC90F102E054FEF0E04402F0E054DFA3
:20064B00F0E04404F090F102E054F7F090F102E054EFF090F102E054BFF090F102E0547FB7
:20066B00F0AEF84306808EF890F102E0FF747F5FF5FB90F102E030E70543FC20800353FC36
:20068B00DFAEF84306408EF822B291308FFD85F982C28F22AF82C2EA8FF9B2A310EA0280F1
:2006AB00FB22AE82AF838E048F051EBEFF011FEC4D6010795619E960087A1E1AEA60F6803B
:2006CB00FA80E322AE82AF838E048F051EBEFF011FEC4D600500000080EE2275D69F90F174
:1506EB000AE054FC4402F090F10AE054FBF090F10AE054F7F03A
:2007000090F109E054E04412F090F109E0549FF090F109E0547FF090F107E0541FF090F12F
:200720000AE0543F4440F090F10AE054CFF090F107E054E0F090F108E4F090F103F090F16C
:2007400004F07EAF7FDF8F0690F105EEF07FAF90F106EFF07E037FF18FD575D40322AE829A
:20076000AF83AC12AD13AA14AB158A008B011ABAFF011BE84960188E828F83E0F9A3AE82CF
:20078000AF838C828D83E9F0A3AC82AD8380DB22AE82AF8374F42F400475820022E5102E39
:2007A000E5113FC39480400475820022EE30E00475820022E51030E0047582002275D69FA9
:2007C000AD1190F107ED541FF5F0E054E045F0F0AD1090F108EDF0AD0F8D0490F103ECF085
:2007E000AD0E90F104EDF07CAF7DDF8D0490F105ECF07DAF90F106EDF0EFC313CE13CEFF5F
:200800008FAD8EACE5AE20E7FB75AB2A75D6010012084FE5D130E0FBE5AE54C0600280F88C
:2008200053D1FE75820122AF82BF2000400475820022BF0300500475820022E5AE20E7FB4B
:0F084000EF2FF5AD75AB2A43AE01007582012293
:2008500043AE02002253F7FB53FFFB22E5A030E204758200227582012220F71130F6138808
:2008700083A88220F509F6A8837583002280FEF280F5F02220F71430F6148883A88220F5BC
:1008900007E6A88375830022E280F7E49322E02232
:040C0000020C893227
:010C0B0032B6
:010C130032AE
:010C1B0032A6
:010C2300329E
:010C2B003296
:010C3300328E
:030C3B0002229101
:010C4300327E
:030C4B00021F0A7B
:010C5300326E
:030C5B00022988E3
:030C6300023089D3
:030C6B000230DF75
:010C7300324E
:010C7B003246
:200C8300022B490220B8758132123271E5826003020C867901E94400601B7A0190392878C0
:200CA300A67593F1E493F2A308B800020593D9F4DAF27593FFE478FFF6D8FD7800E84400C2
:200CC300600A79007593F0E4F309D8FC78A6E84401600C790290F000E4F0A3D8FCD9FA753D
:200CE3000C00020C8690327575F08012236C12235F121F9890F003E4F090F001F090F049A6
:200D0300F090F04AF090F0027464F0120D51120D9A120E71E5826003120E9E90328275F0F1
:200D23008012236C12235F90F13DE0F5821223A190F13EE0F5821223A11225C01211831275
:200D430013D890329775F08012236C02235F75E1049032A975F08012236C90DF36E0FFF57E
:200D630082C0071223A19032C275F08012236C90DF37E0F5821223A11225C0D007BF810B5B
:200D83009032CE75F08012236C80099032F675F08012236C02235F90332275F08012236C84
:200DA30012235F75E10490DF13740FF090DF147418F090DF027411F090DF047405F090DF1D
:200DC3002E74FFF090DF077408F090DF08E4F090DF09745CF090DF0A7476F090DF0B7427B2
:1D0DE300F090DF0C74AAF090DF0D7439F090DF0E7411F090DF0F7423F090DF107477
:200E00007AF090DF117442F090DF157416F090DF16746CF090DF177403F090DF187440F0D7
:200E200090DF197491F090DF1A7456F090DF1B7410F090DF1C74A9F090DF1D7405F090DFF8
:200E40001EE4F090DF1F7411F090DF2303F090DF247431F090DF25740BF090DF05E4F09015
:200E6000DF037404F090333475F08012236C02235F90334B75F08012236C12235F121DD4FC
:200E8000E582600D90336575F08012236C7582012290337575F08012236C7582002290331C
:200EA0008775F08012236C12235F90F13D7403F090F16EE4F0121183C2A3D291120EEB121E
:200EC00011E0122A4E12266B90339775F08012236CD291D2A39001F41229F81229E3C2A301
:200EE0009001F41229F81229E380E87F007E007D7F7C819033BE75F080C007C006C005C046
:200F00000412236C12235F75820012116B90F16EE4F09033CF75F08012236C12235FD004D0
:200F2000D005D006D007C2A3BE05030210DEC007C006C005C0041229E31211B9D004D0055B
:200F4000D006D007BE0002800ABE0102800FBE0202803690F16E7481F07E01806290F16EAE
:200F6000E0FBC3648094F5500D90F16EE02409FB90F16EF08049EF600CED24F7FB90F16E1D
:200F8000F07E02803A7E00803690F16EE0FBECF93395E0FA740929F9E43AFAEBF83395E060
:200FA000FBC3E899EB64808AF063F08095F0500D90F16EE0FB0B90F16EEBF080027E0575DB
:200FC000E10490F16EE090DF08F0C2A3900001C007C006C005C0041229F875E1029000329D
:200FE000122922D004D005D006D0077B00D291C2A3C007C006C005C004C00312293DE58243
:20100000D003D004D005D006D00760030210BFEB60030210BFC007C006C005C004C0031269
:2010200011B9D003D004D005D006D00790F049E060BF90F049E4F0C007C006C005C004C082
:2010400003122B45D003D004D005D006D00775E10290F035E0FABA119890F048E0FA30E7DF
:201060009090F037E0FABA0188758242C006C005C0041222F5D004D005D0067F017B019050
:20108000F16EE0FAC3ED64808AF063F08095F050048D02800590F16EE0FA8A0590F16EE022
:2010A000C364808CF063F08095F050048C02800590F16EE0FA8A0490F035E4F0020FF1EB81
:2010C0006003020F2875822DC007C006C005C0041222F5D004D005D006D007020F28ECFE98
:2010E0003395E0FFEDFA3395E0FBEA2EF582EB3FF583752F02753000C005C004123239AE8F
:2011000082AF83D004D0059033EA75F080C007C006C005C00412236CD004D0058D82C004AD
:201120001224319033FA75F08012236CD0048C821224311225C012235FD006D00790F16E95
:20114000EEF075E10490DF08EEF09000011229F875E1029033FE75F08012236C90F16EE0D0
:20116000F5821224311225C002235FAF8275E104C007122A55D0078F821211A3122B45758E
:20118000E1022275E10490F16EE090DF08F090DF147408F090F13DE090DF05F090DF0374E3
:2011A0000DF022AF8275E10490DF06EFF075E10190DF3BE0FFBF01F82290DF3BE0541FFF7B
:2011C000BF110D90341C75F08012236C75E10422BF160C90342A75F08012236C75E104227F
:2011E000E4F508F509F58212116B90F13DE4F090F13EF090001C12292274FFB50808740312
:20120000B509030213A01229E31211B912293DE5826023121FB075826D1222F590001C12D0
:20122000292275E10490F049E4F09003E8122A1A122B4575E10290F049E060BD7582701282
:2012400022F590F049E4F0122B4575E10290F035E0FDBD113190343875F08012236C1223B8
:201260005F7D00ED2435F582E434F0F583E0F582C0051223A17582201222F5D0050DBD1470
:201280000040E01225C090F035E0FDBD110280030211F990F048E0FD20E7030211F990F00B
:2012A00037E0FDBD010280030211F990001C1229227582421222F590F13DE0703490F13E5F
:2012C000E0702E90F038E090F13DF090F039E090F13EF090344375F08012236C90F13DE0D7
:2012E000F5821223A190F13EE0F5821223A11225C090F03AE0F50AAB0A7C00752F058C308F
:201300008B828C83C004C003123239A982AA83D003D004C3E9940AEA648094805061750B51
:2013200000AE0B7F00EE2BFEEF3CFFC3EE942FEF648094805026E50B250A243FFEE434F1DA
:20134000FFAD0B74062DF83395E0FDE82435F582ED34F0F583E0FD8E828F83F0050B74FBE3
:20136000250B50BD89F005F07E017F008006EE2EFEEF33FFD5F0F7EE4208EF4209801990AC
:20138000345675F080C002C00112236CD001D00289821224991225C090F048E4F00211F99E
:2013A00090346E75F08012236C7F00EF243FF582E434F1F583E0F582C0071223A1758220A1
:2013C0001222F512235FD0070FBF2F0040DD75820A1222F575E1042290347E75F08012235D
:2013E0006C90F16EE090DF08F090349075F08012236C7F00C0071229E3D007EF243FF5826D
:20140000E434F1F583E0FE758220C007C0061222F5D0068E82C0061223A1D0068E82121115
:20142000A3D007EF2404FDE434F0FE90DF1EE08D828E83F00FBF2F0040BA1225C090DF1C22
:20144000E090F034F090DF1DE090F033F075E1049034A675F08012236C90F16EE0F5821257
:2014600024319034BD75F08012236C7F00EF2404F582E434F0F583E0F582C0071223A1751A
:2014800082201222F512235FD0070FBF2F0040DD9034D575F08012236C90F033E0F58212C1
:2014A00023A19034EF75F08012236C90F034E0F5821223A11225C012235F90350975F08010
:2014C00002236C7F007E007D007C007B0090352075F080C007C006C005C004C00312236CC6
:2014E00090F000E4F090F13FE0F58212116B75E1029001F41229221229E3D003D004D0051F
:20150000D006D00790F048E4F07A01C007C006C005C004C003C00212293DE582D002D003E8
:20152000D004D005D006D00770030216A8EA7020900009C007C006C005C004C003C0021262
:201540002922D002D003D004D005D006D007801E9001F4C007C006C005C004C003C0021275
:201560002922D002D003D004D005D006D007C007C006C005C004C003C0021229E375820174
:20158000121848D002D003D004D005D006D007EB701DD2A3C007C006C005C004C003C00256
:2015A000121FB0D002D003D004D005D006D007C007C006C005C004C003C002122B45D00260
:2015C000D003D004D005D006D00775E102EF60027F00EB6020A911743029F582C007C006C4
:2015E000C005C004C0021222F5D002D004D005D006D007801B758221C007C006C005C00486
:20160000C0021222F5D002D004D005D006D0070E7B008D010DB93200407390353B75F08010
:20162000C007C006C004C003C00212236CD002D003D0048C2F753000900064C004C003C01F
:201640000212317D752F327530001231391224997582251222F51225C0D002D003D004D07D
:2016600006D00790F003ECF0EC701E7A01C007C006C003C002121D7E90354475F080122357
:201680006CD002D003D006D0077D017C00C007C006C005C004C003C0021211B9D002D00376
:2016A000D004D005D006D00790F049E0700302180AC2A390F035E0F9B91102800302150B30
:2016C00090F048E0F920E70302150B90F036E0F990F13DE0F8E9B50002800302150B90F053
:2016E00037E0F990F13EE0F8E9B50002800302150BD291900005C007C005C00412210D90E6
:20170000F038E0F87900752F04893088828983123203A882A983D004D005D007B80205B944
:2017200000027F01EF6014900009C007C005C004122922D004D005D0078012900000C00715
:20174000C005C004122922D004D005D00790000FC007C005C00412294B1229E3D004D005E7
:201760007E0090F039E0F90C7B017A0090F047E0F582C006C005C004C003C002C00112187A
:201780006DE58290F002F01218BAD001D002D003D004D005D006D00790F048E4F0C291EF75
:2017A000700302150B758201C007C006C005C004C003C002C001121848D001D002D003D088
:2017C00004D005D006D007C007C006C005C004C003C002C00112297AE582D001D002D00395
:2017E000D004D005D006D00760DD8982C007C006C005C004C003C0021219D7D002D003D039
:2018000004D005D006D00702150B90F049E4F002150BE582FF243FF582E434F1F583E0FEC2
:2018200075E10490F034E090DF1CF090F033E090DF1DF0EF2404F582E434F0F583E090DFD3
:201840001EF090DF06EEF022AF8290F000E02FFF30E704742F2FFFC3EF648094AF4004EF4E
:2018600024D1FF90F000EFF08F82021812AF82BF800040238F2F75300090001212317DAD93
:2018800082E583C403CDC40354076DCD5407CD6DCDED24AEF582228F2F753000900012129D
:2018A000317DAE82E583C403CEC40354076ECE5407CE6ECE74412EF5822290F03FE0FF531D
:2018C000070F8F067F0090F03BE07C004207EC420690F04BEFF0EEA3F090F03FE0FF530727
:2018E000F0E4CFC4CF6FCF54F0CF6FFE90F03CE07C004207EC420690F04DEFF0EEA3F090A2
:20190000F040E0FF53070F8F067F0090F03DE07C004207EC420690F04FEFF0EEA3F090F0F6
:2019200040E0FF5307F0E4CFC4CF6FCF54F0CF6FFE90F03EE07C004207EC420690F051EFE3
:20194000F0EEA3F090F045E0FF53070F8F067F0090F041E07C004207EC420690F053EFF0A9
:20196000EEA3F090F045E0FF5307F0E4CFC4CF6FCF54F0CF6FFE90F042E07C004207EC425F
:201980000690F055EFF0EEA3F090F046E0FF53070F8F067F0090F043E07C004207EC42064E
:2019A00090F057EFF0EEA3F090F046E0FF5307F0E4CFC4CF6FCF54F0CF6FFE90F044E07CDD
:2019C000004207EC420690F059EFF0EEA3F0121D8C90F04B021E3EAF8275E104C007122ADF
:2019E0006290F0357411F090F13DE090F036F090F13EE090F037F0758200122D0CAE8290CF
:201A0000F038EEF0758201122D0CAE82D00790F039EEF090F002E090F03AF07E06EE243508
:201A2000F582E434F0F583E4F00EBE140040EE8F1490F03B122176122C1C752F1490F035FF
:201A400075F000122BA9121FCA758200122A6B022B457F007E007D007C007B009035517534
:201A6000F080C007C006C005C004C00312236C90F000E4F090F13FE0F58212116B9001F4FE
:201A80001229227A01C0021229E3D002D003D004D005D006D007C007C006C005C004C003BA
:201AA000C0021229E312293DE582D002D003D004D005D006D0077003021B98D2A3EA702055
:201AC000900009C007C006C005C004C003C002122922D002D003D004D005D006D007801EDC
:201AE0009001F4C007C006C005C004C003C002122922D002D003D004D005D006D007758277
:201B000001C007C006C005C004C003C0021218489003E8122A1A90F049E4F0122B45D002F5
:201B2000D003D004D005D006D00775E102EB703AEF601B90356F75F080C006C005C004C0FD
:201B40000212236CD002D004D005D006801990357A75F080C006C005C004C00212236CD052
:201B600002D004D005D0067F000E7B008D010DB964004022EC701B7A0190354475F080C022
:201B800007C006C003C00212236CD002D003D006D0077D017C00C2A3C007C006C005C0048B
:201BA000C003C0021211B9D002D003D004D005D006D00790F049E07003021A96C007C0066E
:201BC000C005C004C003C002122B45D002D003D004D005D006D00775E10290F035E0F9B9DB
:201BE00011028003021CE190F048E0F920E703021CE190F036E0F990F13DE0F8E9B50002E1
:201C00008003021CE190F037E0F990F13EE0F8E9B500028003021CE1D2919001F4C007C08A
:201C200005C004122A1A900000122922D004D005D007EF601590358575F080C005C00412EA
:201C4000236CD004D0057F00801590358875F080C007C005C00412236CD004D005D007791C
:201C600000E92435F582E434F0F583E0F582C007C005C004C0011223A17582201222F5D0DD
:201C800001D004D005D00709B9140040D490358B75F080C007C005C00412236C1229E3D0C5
:201CA00004D0057E0090F038E0F87900752F048E3088828983C006C005C004123203A88288
:201CC000A983D004D005D006D007B80205B900027F010C7B017A0090F048E4F0C291021A7B
:201CE0009690F035E07003021A9690358D75F080C007C006C005C004C003C00212236CD051
:201D000002D003D004D005D006D0077900E92435F582E434F0F583E0F582C007C006C0053D
:201D2000C004C003C002C0011223A17582201222F5D001D002D003D004D005D006D00709AE
:201D4000B9140040C8C007C006C005C004C003C0021225C0D002D003D004D005D006D00721
:201D600090F049E4F0021A969035A375F08012236C12235F90F05CE4F0A3F0021D7ED2A33D
:201D8000C291121F0790F05B7401F02290F05CE4F0A3F090F05BE0600A90F05BE4F0C2A3DA
:201DA000021EFF2290F05CE02401F0A3E03400F090F05CE0FEA3E0FFC3EE94A3EF94024081
:201DC00003021D7E229035B375F08012236C12235F022BBC9000641229F8122BC3E58260D8
:201DE000207F00900001C0071229F8122BC3E582D0077003F582220FBFC80040E6758201BB
:201E000022758200229035BD75F08012236C12235F7F00EF75F002A4245FF58274F035F0EF
:201E2000F58374B2F0740CA3F00FBF080040E4122FEF9035C875F08012236C02235F858239
:201E40000D85830E750FE87510FD7B00EB75F002A4250DF582E50E35F0F583E0F9A3E0FA71
:201E60008900C40354F8C8C403C868C854F8C868FFE929FDEA33FEED2DFDEE33FEED28F857
:201E8000EE3FFFE928F582EA3FF583752F06753000C003123139AE82AF83D003C3EE946D78
:201EA000EF940B50067C6D7D0B80048E048F058C068D07C374A99E741A9F50067CA97D1A40
:201EC00080048E048F05E50FC39CF50FE5109DF51053A87FEB75F002A4245FF58274F03567
:201EE000F0F583ECF0EDA3F043A8800BBB08005003021E4C90F06FE50FF0E510A3F0229019
:201F0000F05EE4F0023022023030C020C0E0C0F0C082C083C007C006C005C004C003C00299
:201F2000C001C000C0D075D0007EB27F0C53E40F90F05BE060028043C007C006121DA4D03A
:201F400006D00790F05EE0FDBD0900501790F05EE075F002A4245FF58274F035F0F583E018
:201F6000FEA3E0FF90F05EE02401F0E0FDBD0900400590F05EE4F08EDA8FDBD0D0D000D062
:201F800001D002D003D004D005D006D007D083D082D0F0D0E0D020329035D875F080122357
:201FA0006C12235F751100122A32851182022A3EE511600B758200122A3EAC828C11227577
:201FC0008201122A3EAC828C112290005A12294B12297AE5827008122BA2E58260F22290C9
:201FE00035E675F08002236C9035EA75F08012236C12235F90F071E4F0A3F090F073F0A3A9
:20200000F0F512F51302303B8582128583132290F071E4F0A3F090F073740AF0E4A3F022AC
:2020200090F073E0FEA3E04E6038E58030E70A90F071E0A3E043E004F090F073E024FFFE81
:20204000A3E034FFFF90F073EEF0EFA3F090F071E0FEA3E0C313CE13CEFF90F071EEF0EFE4
:20206000A3F090F073E0FEA3E04E704890F071E0FEA3E0C313CE13CE90F071E0FDA3E0ED5E
:2020800030E0087582531222F5802590F071E0FDA3E0FF20E1087582731222F58012E5129B
:2020A0004513600C1220A98007C012C0138E8222758201227582002243FF08C2A343FE02FE
:2020C000C291C2A3C2911228DB121DC512224C1226F01220FE1225C6120CE812223D121E70
:2020E00005121D681221279035FD75F08012236C1214C390360E75F08012236C80FE90361B
:202100003F75F08012236C12235F0228FD12294B12297AE58260F92290364E75F0801223F4
:202120006C12235F022A3190365975F08012236C12235F90F0B8E4F090F0B7F090F0B5F0B1
:2021400090F0B6F0121FE89022160220081229E390F0B91221D8E58260F37582201222F5F2
:2021600090F0B9E0F5821223A190F0B9E0FFBF5EDC1225C080D785821585831690F0B8E048
:20218000B5140B90F0B5E0FF90F0B6F0800990F0B6E0FF90F0B5F07F007E02EE2515F582D0
:2021A000E43516F583C007C0061221D8E582D006D00760070F0EBE0C0040E0AD15AE168D4B
:2021C000828E83EFF08D828E83A3E514F0AF140F90F0B8741F5FF02285822F85833090F0E5
:2021E000B5E0FF90F0B7E0FEEFB5060475820022AE2FAF3090F0B5E02475F582E434F0F591
:2022000083E08E828F83F090F0B5E004543F90F0B5F075820122AF8290F0B7E004543FFE81
:2022200090F0B5E0B506012290F0B7E02475F582E434F0F583EFF090F0B7EEF02290366ABE
:2022400075F08012236C12235F022BD012227F90F1A67401F01225C090367575F0801223DC
:202260006C90368475F08012236C90369175F08012236C12235F9036B675F08002236C12AD
:2022800026FF90F13BE4F090F13AF0900064022A1AC0E0C082C083C007C006C0D075D0001D
:2022A000C2E990F13AE0FF90F13BE0FEEFB50605539AFB8016EF24BAF582E434F0F583E06E
:2022C000F5C1EF04547FFF90F13AF0D0D0D006D007D083D082D0E0329036C775F08012235D
:2022E0006C12235F9036DB75F08012236C9001F41229F880EFAF82BF0A0A75820DC00712AF
:2023000022F5D00753A87FE59A30E24290F13BE024BAF582E434F0F583EFF090F13BE00492
:20232000547F90F13BF090F13BE0FE90F13AE0FDEEB505277D001EBEFF011D53067F7D0052
:20234000EE24BAF582ED34F0F5837424F02290F13AE090F13BF08F8212278143A8802290D8
:20236000F1A6E0700122E59A20E2FB22AD82AE83AFF01231E7FC0DBD00010EEC60228C823B
:20238000C007C006C0051222F5D005D006D0078D828E838FF01231E7FCA3AD82AE8380DB1D
:2023A00022AF82740F5FFEEFC4540FFFBF0A0050088F0574302DFD800474372FFDBE0A002F
:2023C00050088E0774302FFF800474372EFF8D82C0071222F5D0078F820222F5AE82AF8380
:2023E0008F82C007C0061223A1D006D0078E820223A1AC82AD83AEF0FFF582C007C006C027
:2024000005C0041223A1D004D005D0068E82C006C005C0041223A1D004D0058D82C005C02C
:20242000041223A1D004D005D006D0078C820223A1E582FF30E71075822DC0071222F5D027
:2024400007C3E49FFE80028F067F007D647C30C3EE9D4009EEC39DFE0C7F0180F28C03EFAF
:202460007006BC3003BD01118B82C007C006C0051222F5D005D006D0078D037C00752F0A64
:202480008C308B828C83C007C006123239AB82D006D0078B05ED70B522AF827E007D647CB0
:2024A00030C3EF9D4009EFC39DFF0C7E0180F28C03EE7006BC3003BD01118B82C007C006BE
:2024C000C0051222F5D005D006D0078D037C00752F0A8C308B828C83C007C006123239AB45
:2024E00082D006D0078B05ED70B522AE82AF837D007C00C3EE9410EF9427400DEE24F0FE42
:20250000EF34D8FF0C7D0180EAEC601474302CF582C007C006C0051222F5D005D006D00729
:202520007C00C3EE94E8EF9403400DEE2418FEEF34FCFF0C7D0180EA8C03ED7003EC601496
:2025400074302BF582C007C006C0051222F5D005D006D0077C00C3EE9464EF9400400DEE55
:20256000249CFEEF34FFFF0C7D0180EA8C03ED7003EC601474302BF582C007C006C005128F
:2025800022F5D005D006D0077C00C3EE940AEF9400400DEE24F6FEEF34FFFF0C7D0180EAEC
:2025A0008C03ED7003EC601074302BF582C007C0061222F5D006D00774302EF5820222F5C5
:2025C00075820A0222F59036E675F08012236C12235F122D441226099036F575F080122382
:2025E0006C7F00EF243FF582E434F1F583E0F582C0071223A17582201222F512235FD00707
:202600000FBF2F0040DD0225C090374275F08012236C12235F75233375240090F13C75F010
:2026200000122D6590F13CE0FFBF01012290375475F08012236C90F13C7401F090F13D7482
:2026400016F090F13E7468F090F16E74BBF07F00EF243FFDE434F1FEEF903713938D828E0D
:2026600083F00FBF2F0040E802266B90377F75F08012236C12235F90F13C7401F0752133E4
:2026800075220090F13C75F000022D50AD82AE83AFF090F1A6E0603690379175F080C00762
:2026A000C006C00512236CD005D006D0078D828E838FF012236C9037A175F08012236C85B9
:2026C00017828518831224EB1225C012235FD2A39000641229F8D2919000641229F8C2911C
:2026E0009000641229F8C2A39000641229F880DE9037A875F08012236C12235F0229B15311
:20270000F1FE43F30853F4DF43FD0875C22274E055C5FF43070C8FC590F16FE054FEF0E0BC
:202720004402F0E054FBF090F16FE054F7F090F16FE054EFF090F16FE054DFF090F16FE073
:2027400054BFF090F16FE0547FF090F16F12275443A88022AE82AF83AC864304808C868EDE
:20276000828F83E0FD747F5DF5C48E828F83E030E70543C520800353C5DF53A9FB53B9FB21
:2027800022AF82C2E95386FD439A048FC12253F1FDAEFF53063F4306408EFF43F33043FDD0
:2027A0001075FAF874E055FCFF43070B8FFC90F170E054FEF0E04402F0E054DFF0E04404CA
:2027C000F090F170E04408F090F170E04410F0E054BFF090F170E0547FF090F17012285CE9
:2027E00090F190E054FCF0E04404F0E054F7F090F18FE054E04411F090F18FE0549FF090A9
:20280000F18FE0547FF090F189E4F090F18AF07EF97FDF8F0690F18BEEF07FF990F18CEFF4
:20282000F090F18DE0541FF090F18DE054E0F090F18EE4F090F190E0543F4440F090F19059
:20284000E054CFF07E797FF18FD375D27943D6087F2D8F061FEE60030080F722AE82AF832F
:20286000ACF84304808CF88E828F83E0FD747F5DF5FB8E828F83E030E70543FC20800353D7
:20288000FCDF43A90853B9F722AD82AE83AFF074012DFAE43EFB8F048A008B01890090F1D9
:2028A00089E8F090F18AEAF07C008C0390F18DEB541FF5F0E054E045F0F0AC2F90F18EEC67
:2028C000F043D6087C2D8C031CEB60030080F78D828E838FF01231E7F5F922D2A3D29153CA
:2028E000BEFBE5BE30E6FB0075C680E5BE30E6FB00AEBE4306048EBEC2A3C291229037B3A3
:2029000075F08012236C12235F74C755C6FF4307188FC675CB3E75CD4043B80890000002FC
:202920002922AE82AF8353B8F78E2F8F3090001912317D85821B85831C43B80822E51B4553
:202940001C7004758201227582002285822F85833090001912317D752F0A7530001231390E
:2029600085821D85831E2285822F85833090001912317D85821D85831E22E51D451E7004CF
:202980007582012275820022C0E0C0D0C2C3E51B451C6009151B74FFB51B02151CE51D4598
:2029A0001E6009151D74FFB51D02151ED0D0D0E032E5C620E71D9037C675F08012236CD2AE
:2029C00091D2A39000C81229F8C2A39000C81229F880EE74FC55C9FF8FC974FB55C944084A
:2029E000F5C922AEC953060F4306A08EC9AEC953060F4306508EC922AE82AF838E048F055F
:202A00001EBEFF011FEC4D6010795619E960087A1E1AEA60F680FA80E322AE82AF838E04F4
:202A20008F051EBEFF011FEC4D600500000080EE222243B90143A90190F199E4F022AF828C
:202A40007E007D007C008F828E838DF0EC22539AFE75910022758200122A6B439A017591BD
:202A6000102275D681758201022A6BAF8290F178E054FC4402F090F178E054FBF090F17828
:202A8000E054F7F090F177E054E04413F090F177E0549FF090F177E0547FF090F199EFF079
:202AA000E0FFBF014C7E357FF08F0690F171EEF07F3590F172EFF07ED97FDF8F0690F173E0
:202AC000EEF07FD990F174EFF090F175E0541F4420F090F175E054E0F090F1767412F09058
:202AE000F178E0543F4440F090F178E054CFF0804A7ED97FDF8F0690F171EEF07FD990F1DD
:202B000072EFF07E357FF08F0690F173EEF07F3590F174EFF090F175E0541F4480F090F1D5
:202B200075E054E0F090F1767414F090F178E0543FF090F178E054CF4410F07E717FF18F23
:202B4000D575D4712275D60122C020C0E0C0F0C082C083C007C006C005C004C003C002C046
:202B600001C000C0D075D00053E9EF539BFC90F199E0700B90F0497401F0122B458006906F
:202B8000F04A7401F0D0D0D000D001D002D003D004D005D006D007D083D082D0F0D0E0D075
:202BA000203290F04AE0F5822275E10375D60190F04AE4F0AE9B4306038E9B2253FFFD53BB
:202BC000F7FD22E5A020E104758201227582002290F19AE4F0A3F090F19CF0A3F053FDBFF1
:202BE00075F24075B5A775B453752F9A7530F175311B758201122C2C7402249AF52FE4347A
:202C0000F1F53075311B758202122C2C7E797FF18FD375D279022C1875D60622122CFFE516
:202C2000826003022C187582440222F5E58275F008A42471FE74F135F0FF74072EF582E47D
:202C40003FF583E054FCF074072EF582E43FF583E04404F074072EF582E43FF583E054F7E4
:202C6000F074062EF582E43FF583E531541FF5F0E054E045F0F074062EF582E43FF583E069
:202C8000549F4420F074062EF582E43FF583E0547FF07CBA7DDF8D048E828F83ECF08E825F
:202CA0008F83A374BAF08E828F83A3A3AD308D04ECF08E828F83A3A3A3E52FF08E828F835E
:202CC000A3A3A3A3E0541FF08E828F83A3A3A3A3E054E0F08E828F83A3A3A3A3A37402F0BC
:202CE00074072EF582E43FF583E0543F4440F074072EF582E43FF583E054CF4410F022749A
:202D00000655D1FFE4BF060104F58222E582701A90F19CE0FEA3E0A2E7CE33CE33CE540124
:202D200030E0047E007F008E822290F19AE0FEA3E0A2E7CE33CE33CE540130E0047E007F15
:202D4000008E82229037F675F08012236C02235F85822885832985F02A903C0085212B8559
:202D6000222C022DCD85822585832685F02790380975F08012236C12235F7B007C00C3EB83
:202D80009523EC95245045EB2525F8EC3526F9AA278B82743C2CF583E493888289838AF09B
:202DA0001231628B82743C2CF583E493F582C004C0031223A17582201222F512235F1229B3
:202DC000E3D003D0040BBB00B50C80B22285822D85832E90382B75F08012236C12235F8592
:202DE0002E821223A1852D821223A11225C0E52B30E01190384E75F08012236C052BE4B5B6
:202E00002B02052C53A87F75D69F90F1A5E054FC4402F090F1A5E054FBF090F1A5E054F7CE
:202E2000F090F1A4E054E04412F090F1A4E0549FF090F1A4E0547FF0AD298D0490F19EEC01
:202E4000F0AD2890F19FEDF07CAF7DDF8D0490F1A0ECF07DAF90F1A1EDF090F1A2E0541FFA
:202E6000F0AD2C90F1A2ED541FF5F0E054E045F0F0AD2B90F1A3EDF090F1A5E0543F4440F2
:202E8000F090F1A5E054CFF07C9E7DF18DD575D49EE5AE20E7FB75AB2AAC2DE52EC313CCEB
:202EA00013CCFD8DAD8CAC43A88090386C75F08012236C12235F53A87F75D100122FE9E53C
:202EC000AE20E7FB43A88090388775F08012236C12235F9038A075F08012236C12235F7C70
:202EE000007D00C3EC952BED952C505974012CFAE43DFBEC2528F8ED3529F9AF2A888289F7
:202F0000838FF01231E7F582C003C0021223A1D002D00374012AFCE43BFDEA2528FAEB3506
:202F200029FBAF2A8A828B838FF01231E7F582C005C0041223A17582201222F512235FD057
:202F400004D005809E9038BA75F08012236C9038BD75F08012236C12235F53A87F75D6010D
:202F600000122FE3E5D120E0051229E380F6E5AE54C070FA43A88053D1FE9038E075F080B3
:202F800012236CAD2DAE2E7F007B007C00C3EB952BEC952C503B8D828E838FF01231E7FAFB
:202FA000A3AD82AE838A82C007C006C005C004C0031223A17582201222F512235F1229E361
:202FC000D003D004D005D006D0070BBB00BF0C80BC9038BA75F08012236C9038F975F0804D
:032FE00002236C5D
:052FE40043AE020022D3
:202FEA0043AE010022C2DE75E50075E60075E72453F1BF43F10243F31043FD1075E402753F
:20300A00DECF75DF0375DAB275DB0C90F05EE4F053E40FD2DED2B92243F31075E20075E3FB
:20302A0000D2DED2B922C2DEC2B953F3EF5380EF2290391175F08012236C12235F12304D72
:20304A0002305153FD7F22C2DE75EC0075EE0075EB3E75EDA9C2DBD2DE43B810758900C2CD
:20306A00C5438C1053F3BF438C0143A91043B91043A92043B920C2C575890043B82022C01B
:20308A0020C0E0C0F0C082C083C007C006C005C004C003C002C001C000C0D075D00030DB35
:2030AA001775EDA8122020E582600643B82053B8EFC2DB758900C2C5D0D0D000D001D0027C
:2030CA00D003D004D005D006D007D083D082D0F0D0E0D02032C020C0E0C0F0C082C083C011
:1630EA0007C006C005C004C003C002C001C000C0D075D000AF8967
:20310000758900C2C5EF30E71343EB0453B8DF43B81075ED53C2C5C2DB12200FD0D0D00060
:20312000D001D002D003D004D005D006D007D083D082D0F0D0E0D020327A10E4FBFCE582C0
:2031400025E0F582E58333F583EB33FBEC33FCEB952FF5F0EC95304006FCABF0438201DAEA
:20316000DD2220F71130F6138883A88220F509F6A8837583002280FEF280F5F022E582857E
:203180002FF0A4C582C0F08530F0A4D0F025F0C583852FF0A42583F58322E52F4530604656
:2031A0007A01E52F25E0F52FE530334012F530E582952FE583953040030A80E6C3E53013A2
:2031C000F530E52F13F52FC3E582952FF5F0E58395304005F58385F082C3E53013F530E5D6
:2031E0002F13F52FDAE12220F71430F6148883A88220F507E6A88375830022E280F7E493DB
:2032000022E022C2D5E58330E70DD2D5E4C39582F582E49583F583E53030E70BE4C3952F75
:20322000F52FE49530F53012319A30D50BE4C39582F582E49583F58322C2D5E58330E70DC1
:20324000D2D5E4C39582F582E49583F583E53030E70DB2D5E4C3952FF52FE49530F53012EF
:20326000313930D50BE4C39582F582E49583F58322758200226672736B793A20696E6974B3
:203280000A006672736B793A207573696E672074786964203078006672736B793A20696E74
:2032A000697420646F6E650A006672736B793A2063633235787820706172746E756D203044
:2032C00078002076657273696F6E203078006672736B793A20676F742076616C69642070F5
:2032E00061727420616E642076657273696F6E20696E666F0A006672736B793A20676F7465
:2033000020494E56414C4944207061727420616E642076657273696F6E20696E666F3F210A
:203320000A006672736B793A20636F6E6669677572650A006672736B793A20636F6E666996
:203340006775726520646F6E650A006672736B793A2042494E44206A756D70657220736599
:2033600074203D2000594553202D3E2062696E64696E670A004E4F202D3E206E6F206269CB
:203380006E64696E670A006672736B793A20646F2062696E640A006672736B793A20666998
:2033A0006E69736865642062696E64696E672E20706C656173652072657365740A006672AA
:2033C000736B793A206175746F74756E650A006672736B793A20656E746572696E67206256
:2033E000696E64206C6F6F700A000A6672736B793A20667363616C302000202D200066727D
:20340000736B793A206175746F74756E6520646F6E652E206F66667365743D006672736BF8
:20342000793A2052584F56460A006672736B793A2054584F56460A006672736B793A205215
:203440005820006672736B793A20676F742074786964203078006672736B793A20696E76AA
:20346000616C69642062696E6420696478006672736B793A20686F705B5D203D20006672B3
:20348000736B793A2063616C696220706C6C0A006672736B793A2074756E696E6720686FF9
:2034A000705B5D203D006672736B793A2063616C696220667363616C30203D20000A66724B
:2034C000736B793A2063616C696220667363616C31203D20000A6672736B793A2063616CA6
:2034E000696220667363616C32203D203078000A6672736B793A2063616C69622066736397
:20350000616C33203D203078006672736B793A2063616C696220706C6C20646F6E650A00CA
:203520006672736B793A207374617274696E67206D61696E206C6F6F700A00205354415491
:20354000533A20000A434F4E4E204C4F5354210A006672736B793A20656E746572696E6714
:2035600020736E6966666572206D6F64650A003C204D495353494E470A003E204D49535355
:20358000494E470A003C20003E20000A005258204E4F4E204652534B59205041434B455443
:2035A0003A20006661696C736166653A20696E69740A00696F3A20696E69740A0070706D21
:2035C0003A20696E69740A0070706D3A20696E697420646F6E650A006363323578783A2031
:2035E000696E69740A0021545800736F66745F73657269616C3A20696E69740A006D616956
:203600006E3A20696E697420646F6E650A006D61696E3A206672736B79206D61696E2065E6
:203620006E6465643F2120544849532053484F554C44204E4F542048415050454E210074C6
:20364000696D656F75743A20696E69740A007370693A20696E69740A0074656C656D65746B
:2036600072793A20696E69740A006164633A20696E69740A00232323204F70656E536B79B5
:20368000202D20004255494C445F54415247455400202D20286329206279206769746875CA
:2036A000622E636F6D2F66697368706570706572202323230A00756172743A20696E697479
:2036C00020646F6E650A00756172743A2072756E6E696E6720746573740A005445535431A8
:2036E000323334350A0073746F726167653A20696E69740A0073746F726167653A206C6FBB
:203700006164656420686F707461626C655B5D203D2000014283C41A5B9CDD3374B50B4C4C
:203720008DCE2465A6E73D7EBF155697D82E6FB0064788C91F60A1E23879BA105192D3297D
:203740006AAB73746F726167653A2072656164696E670A0073746F726167653A20696E6992
:203760007420776974682064656661756C747320287478696420307831363638290A00733D
:20378000746F726167653A2077726974696E670A00617373657274206661696C65643A20CE
:2037A00000206C696E6520007764743A20696E69740A0068616C5F74696D656F75743A20C5
:2037C000696E69740A007764743A206572726F7221206C6F7720737065656420636C6F63D3
:2037E0006B206E6F74206261736564206F6E20696E742072630068616C5F73746F7261674D
:20380000653A20696E69740A0068616C5F73746F726167653A206C6F6164696E6720667272
:203820006F6D20666C6173683A200068616C5F73746F726167653A2077696C6C2077726917
:203840007465207061676520617420307800666C6173683A20636F72726563746564206C66
:20386000656E20746F206576656E0A0068616C5F73746F726167653A2065726173696E67CE
:2038800020706167650A0068616C5F73746F726167653A20657261736520646F6E650A009E
:2038A00068616C5F73746F726167653A2077696C6C207772697465205B005D0A0068616C0B
:2038C0005F73746F726167653A2077696C6C20777269746520666C617368206E6F770A008B
:2038E00068616C5F73746F726167653A2072656164206261636B205B0068616C5F73746F33
:20390000726167653A20777269746520646F6E650068616C5F736F66745F73657269616C8E
:093920003A20696E69740A000086
:00000001FF
